{
    "_format": "hh-sol-artifact-1",
    "contractName": "PaymentVault",
    "sourceName": "contracts/payment/PaymentVault.sol",
    "abi": [
        {
            "inputs": [
                {
                    "internalType": "address",
                    "name": "_paymentToken",
                    "type": "address"
                },
                {
                    "internalType": "address",
                    "name": "_treasury",
                    "type": "address"
                },
                {
                    "internalType": "address",
                    "name": "_owner",
                    "type": "address"
                }
            ],
            "stateMutability": "nonpayable",
            "type": "constructor"
        },
        {
            "inputs": [],
            "name": "PaymentVault__GracePeriodExpired",
            "type": "error"
        },
        {
            "inputs": [],
            "name": "PaymentVault__InsufficientPayment",
            "type": "error"
        },
        {
            "inputs": [],
            "name": "PaymentVault__InvalidDuration",
            "type": "error"
        },
        {
            "inputs": [],
            "name": "PaymentVault__InvalidGracePeriod",
            "type": "error"
        },
        {
            "inputs": [],
            "name": "PaymentVault__InvalidPlan",
            "type": "error"
        },
        {
            "inputs": [],
            "name": "PaymentVault__InvalidPrice",
            "type": "error"
        },
        {
            "inputs": [],
            "name": "PaymentVault__InvalidTreasury",
            "type": "error"
        },
        {
            "inputs": [],
            "name": "PaymentVault__NoRefundAvailable",
            "type": "error"
        },
        {
            "inputs": [],
            "name": "PaymentVault__PlanNotActive",
            "type": "error"
        },
        {
            "inputs": [],
            "name": "PaymentVault__SamePlan",
            "type": "error"
        },
        {
            "inputs": [],
            "name": "PaymentVault__SubscriptionAlreadyActive",
            "type": "error"
        },
        {
            "inputs": [],
            "name": "PaymentVault__SubscriptionNotActive",
            "type": "error"
        },
        {
            "inputs": [],
            "name": "PaymentVault__SubscriptionNotExpired",
            "type": "error"
        },
        {
            "inputs": [],
            "name": "PaymentVault__SubscriptionNotFound",
            "type": "error"
        },
        {
            "inputs": [],
            "name": "PaymentVault__TransferFailed",
            "type": "error"
        },
        {
            "anonymous": false,
            "inputs": [
                {
                    "indexed": true,
                    "internalType": "address",
                    "name": "user",
                    "type": "address"
                },
                {
                    "indexed": false,
                    "internalType": "bool",
                    "name": "autoRenew",
                    "type": "bool"
                }
            ],
            "name": "AutoRenewToggled",
            "type": "event"
        },
        {
            "anonymous": false,
            "inputs": [
                {
                    "indexed": false,
                    "internalType": "uint256",
                    "name": "oldGracePeriod",
                    "type": "uint256"
                },
                {
                    "indexed": false,
                    "internalType": "uint256",
                    "name": "newGracePeriod",
                    "type": "uint256"
                }
            ],
            "name": "GracePeriodUpdated",
            "type": "event"
        },
        {
            "anonymous": false,
            "inputs": [
                {
                    "indexed": true,
                    "internalType": "address",
                    "name": "previousOwner",
                    "type": "address"
                },
                {
                    "indexed": true,
                    "internalType": "address",
                    "name": "newOwner",
                    "type": "address"
                }
            ],
            "name": "OwnershipTransferred",
            "type": "event"
        },
        {
            "anonymous": false,
            "inputs": [
                {
                    "indexed": false,
                    "internalType": "address",
                    "name": "account",
                    "type": "address"
                }
            ],
            "name": "Paused",
            "type": "event"
        },
        {
            "anonymous": false,
            "inputs": [
                {
                    "indexed": true,
                    "internalType": "address",
                    "name": "user",
                    "type": "address"
                },
                {
                    "indexed": false,
                    "internalType": "uint256",
                    "name": "amount",
                    "type": "uint256"
                },
                {
                    "indexed": false,
                    "internalType": "uint256",
                    "name": "timestamp",
                    "type": "uint256"
                }
            ],
            "name": "PaymentProcessed",
            "type": "event"
        },
        {
            "anonymous": false,
            "inputs": [
                {
                    "indexed": true,
                    "internalType": "address",
                    "name": "user",
                    "type": "address"
                },
                {
                    "indexed": true,
                    "internalType": "uint256",
                    "name": "oldPlanId",
                    "type": "uint256"
                },
                {
                    "indexed": true,
                    "internalType": "uint256",
                    "name": "newPlanId",
                    "type": "uint256"
                }
            ],
            "name": "PlanChanged",
            "type": "event"
        },
        {
            "anonymous": false,
            "inputs": [
                {
                    "indexed": true,
                    "internalType": "uint256",
                    "name": "planId",
                    "type": "uint256"
                },
                {
                    "indexed": false,
                    "internalType": "string",
                    "name": "name",
                    "type": "string"
                },
                {
                    "indexed": false,
                    "internalType": "uint256",
                    "name": "duration",
                    "type": "uint256"
                }
            ],
            "name": "PlanCreated",
            "type": "event"
        },
        {
            "anonymous": false,
            "inputs": [
                {
                    "indexed": true,
                    "internalType": "uint256",
                    "name": "planId",
                    "type": "uint256"
                },
                {
                    "indexed": false,
                    "internalType": "enum PaymentVault.PlanStatus",
                    "name": "newStatus",
                    "type": "uint8"
                }
            ],
            "name": "PlanStatusChanged",
            "type": "event"
        },
        {
            "anonymous": false,
            "inputs": [
                {
                    "indexed": true,
                    "internalType": "uint256",
                    "name": "planId",
                    "type": "uint256"
                },
                {
                    "indexed": false,
                    "internalType": "uint256",
                    "name": "newDuration",
                    "type": "uint256"
                }
            ],
            "name": "PlanUpdated",
            "type": "event"
        },
        {
            "anonymous": false,
            "inputs": [
                {
                    "indexed": true,
                    "internalType": "address",
                    "name": "user",
                    "type": "address"
                },
                {
                    "indexed": false,
                    "internalType": "uint256",
                    "name": "amount",
                    "type": "uint256"
                },
                {
                    "indexed": false,
                    "internalType": "uint256",
                    "name": "timestamp",
                    "type": "uint256"
                }
            ],
            "name": "RefundProcessed",
            "type": "event"
        },
        {
            "anonymous": false,
            "inputs": [
                {
                    "indexed": true,
                    "internalType": "bytes32",
                    "name": "role",
                    "type": "bytes32"
                },
                {
                    "indexed": true,
                    "internalType": "bytes32",
                    "name": "previousAdminRole",
                    "type": "bytes32"
                },
                {
                    "indexed": true,
                    "internalType": "bytes32",
                    "name": "newAdminRole",
                    "type": "bytes32"
                }
            ],
            "name": "RoleAdminChanged",
            "type": "event"
        },
        {
            "anonymous": false,
            "inputs": [
                {
                    "indexed": true,
                    "internalType": "bytes32",
                    "name": "role",
                    "type": "bytes32"
                },
                {
                    "indexed": true,
                    "internalType": "address",
                    "name": "account",
                    "type": "address"
                },
                {
                    "indexed": true,
                    "internalType": "address",
                    "name": "sender",
                    "type": "address"
                }
            ],
            "name": "RoleGranted",
            "type": "event"
        },
        {
            "anonymous": false,
            "inputs": [
                {
                    "indexed": true,
                    "internalType": "bytes32",
                    "name": "role",
                    "type": "bytes32"
                },
                {
                    "indexed": true,
                    "internalType": "address",
                    "name": "account",
                    "type": "address"
                },
                {
                    "indexed": true,
                    "internalType": "address",
                    "name": "sender",
                    "type": "address"
                }
            ],
            "name": "RoleRevoked",
            "type": "event"
        },
        {
            "anonymous": false,
            "inputs": [
                {
                    "indexed": true,
                    "internalType": "address",
                    "name": "user",
                    "type": "address"
                },
                {
                    "indexed": true,
                    "internalType": "uint256",
                    "name": "planId",
                    "type": "uint256"
                },
                {
                    "indexed": false,
                    "internalType": "uint256",
                    "name": "cancelTime",
                    "type": "uint256"
                }
            ],
            "name": "SubscriptionCancelled",
            "type": "event"
        },
        {
            "anonymous": false,
            "inputs": [
                {
                    "indexed": true,
                    "internalType": "address",
                    "name": "user",
                    "type": "address"
                },
                {
                    "indexed": true,
                    "internalType": "uint256",
                    "name": "planId",
                    "type": "uint256"
                },
                {
                    "indexed": false,
                    "internalType": "uint256",
                    "name": "startTime",
                    "type": "uint256"
                },
                {
                    "indexed": false,
                    "internalType": "uint256",
                    "name": "endTime",
                    "type": "uint256"
                }
            ],
            "name": "SubscriptionCreated",
            "type": "event"
        },
        {
            "anonymous": false,
            "inputs": [
                {
                    "indexed": true,
                    "internalType": "address",
                    "name": "user",
                    "type": "address"
                },
                {
                    "indexed": true,
                    "internalType": "uint256",
                    "name": "planId",
                    "type": "uint256"
                },
                {
                    "indexed": false,
                    "internalType": "uint256",
                    "name": "expireTime",
                    "type": "uint256"
                }
            ],
            "name": "SubscriptionExpired",
            "type": "event"
        },
        {
            "anonymous": false,
            "inputs": [
                {
                    "indexed": true,
                    "internalType": "address",
                    "name": "user",
                    "type": "address"
                },
                {
                    "indexed": true,
                    "internalType": "uint256",
                    "name": "planId",
                    "type": "uint256"
                },
                {
                    "indexed": false,
                    "internalType": "uint256",
                    "name": "newEndTime",
                    "type": "uint256"
                },
                {
                    "indexed": false,
                    "internalType": "uint256",
                    "name": "renewalCount",
                    "type": "uint256"
                }
            ],
            "name": "SubscriptionRenewed",
            "type": "event"
        },
        {
            "anonymous": false,
            "inputs": [
                {
                    "indexed": true,
                    "internalType": "address",
                    "name": "oldTreasury",
                    "type": "address"
                },
                {
                    "indexed": true,
                    "internalType": "address",
                    "name": "newTreasury",
                    "type": "address"
                }
            ],
            "name": "TreasuryUpdated",
            "type": "event"
        },
        {
            "anonymous": false,
            "inputs": [
                {
                    "indexed": false,
                    "internalType": "address",
                    "name": "account",
                    "type": "address"
                }
            ],
            "name": "Unpaused",
            "type": "event"
        },
        {
            "inputs": [],
            "name": "ADMIN_ROLE",
            "outputs": [
                {
                    "internalType": "bytes32",
                    "name": "",
                    "type": "bytes32"
                }
            ],
            "stateMutability": "view",
            "type": "function"
        },
        {
            "inputs": [],
            "name": "DEFAULT_ADMIN_ROLE",
            "outputs": [
                {
                    "internalType": "bytes32",
                    "name": "",
                    "type": "bytes32"
                }
            ],
            "stateMutability": "view",
            "type": "function"
        },
        {
            "inputs": [],
            "name": "OPERATOR_ROLE",
            "outputs": [
                {
                    "internalType": "bytes32",
                    "name": "",
                    "type": "bytes32"
                }
            ],
            "stateMutability": "view",
            "type": "function"
        },
        {
            "inputs": [],
            "name": "OWNER_ROLE",
            "outputs": [
                {
                    "internalType": "bytes32",
                    "name": "",
                    "type": "bytes32"
                }
            ],
            "stateMutability": "view",
            "type": "function"
        },
        {
            "inputs": [],
            "name": "activeSubscribers",
            "outputs": [
                {
                    "internalType": "uint256",
                    "name": "",
                    "type": "uint256"
                }
            ],
            "stateMutability": "view",
            "type": "function"
        },
        {
            "inputs": [],
            "name": "cancelSubscription",
            "outputs": [],
            "stateMutability": "nonpayable",
            "type": "function"
        },
        {
            "inputs": [
                {
                    "internalType": "uint256",
                    "name": "newPlanId",
                    "type": "uint256"
                },
                {
                    "internalType": "uint256",
                    "name": "tokenAmount",
                    "type": "uint256"
                }
            ],
            "name": "changePlan",
            "outputs": [],
            "stateMutability": "nonpayable",
            "type": "function"
        },
        {
            "inputs": [
                {
                    "internalType": "string",
                    "name": "name",
                    "type": "string"
                },
                {
                    "internalType": "string",
                    "name": "description",
                    "type": "string"
                },
                {
                    "internalType": "uint256",
                    "name": "duration",
                    "type": "uint256"
                }
            ],
            "name": "createPlan",
            "outputs": [
                {
                    "internalType": "uint256",
                    "name": "",
                    "type": "uint256"
                }
            ],
            "stateMutability": "nonpayable",
            "type": "function"
        },
        {
            "inputs": [
                {
                    "internalType": "address[]",
                    "name": "users",
                    "type": "address[]"
                }
            ],
            "name": "expireSubscriptions",
            "outputs": [],
            "stateMutability": "nonpayable",
            "type": "function"
        },
        {
            "inputs": [],
            "name": "getContractStats",
            "outputs": [
                {
                    "internalType": "uint256",
                    "name": "_totalRevenue",
                    "type": "uint256"
                },
                {
                    "internalType": "uint256",
                    "name": "_totalSubscribers",
                    "type": "uint256"
                },
                {
                    "internalType": "uint256",
                    "name": "_activeSubscribers",
                    "type": "uint256"
                },
                {
                    "internalType": "uint256",
                    "name": "_totalPlans",
                    "type": "uint256"
                }
            ],
            "stateMutability": "view",
            "type": "function"
        },
        {
            "inputs": [
                {
                    "internalType": "uint256",
                    "name": "planId",
                    "type": "uint256"
                }
            ],
            "name": "getPlan",
            "outputs": [
                {
                    "components": [
                        {
                            "internalType": "uint256",
                            "name": "duration",
                            "type": "uint256"
                        },
                        {
                            "internalType": "string",
                            "name": "name",
                            "type": "string"
                        },
                        {
                            "internalType": "string",
                            "name": "description",
                            "type": "string"
                        },
                        {
                            "internalType": "enum PaymentVault.PlanStatus",
                            "name": "status",
                            "type": "uint8"
                        },
                        {
                            "internalType": "uint256",
                            "name": "createdAt",
                            "type": "uint256"
                        },
                        {
                            "internalType": "uint256",
                            "name": "updatedAt",
                            "type": "uint256"
                        }
                    ],
                    "internalType": "struct PaymentVault.SubscriptionPlan",
                    "name": "",
                    "type": "tuple"
                }
            ],
            "stateMutability": "view",
            "type": "function"
        },
        {
            "inputs": [
                {
                    "internalType": "uint256",
                    "name": "planId",
                    "type": "uint256"
                }
            ],
            "name": "getPlanSubscriberCount",
            "outputs": [
                {
                    "internalType": "uint256",
                    "name": "",
                    "type": "uint256"
                }
            ],
            "stateMutability": "view",
            "type": "function"
        },
        {
            "inputs": [
                {
                    "internalType": "bytes32",
                    "name": "role",
                    "type": "bytes32"
                }
            ],
            "name": "getRoleAdmin",
            "outputs": [
                {
                    "internalType": "bytes32",
                    "name": "",
                    "type": "bytes32"
                }
            ],
            "stateMutability": "view",
            "type": "function"
        },
        {
            "inputs": [
                {
                    "internalType": "address",
                    "name": "user",
                    "type": "address"
                }
            ],
            "name": "getSubscription",
            "outputs": [
                {
                    "components": [
                        {
                            "internalType": "uint256",
                            "name": "planId",
                            "type": "uint256"
                        },
                        {
                            "internalType": "uint256",
                            "name": "startTime",
                            "type": "uint256"
                        },
                        {
                            "internalType": "uint256",
                            "name": "endTime",
                            "type": "uint256"
                        },
                        {
                            "internalType": "uint256",
                            "name": "lastPayment",
                            "type": "uint256"
                        },
                        {
                            "internalType": "enum PaymentVault.SubscriptionStatus",
                            "name": "status",
                            "type": "uint8"
                        },
                        {
                            "internalType": "bool",
                            "name": "autoRenew",
                            "type": "bool"
                        },
                        {
                            "internalType": "uint256",
                            "name": "totalPaid",
                            "type": "uint256"
                        },
                        {
                            "internalType": "uint256",
                            "name": "renewalCount",
                            "type": "uint256"
                        }
                    ],
                    "internalType": "struct PaymentVault.Subscription",
                    "name": "",
                    "type": "tuple"
                }
            ],
            "stateMutability": "view",
            "type": "function"
        },
        {
            "inputs": [],
            "name": "getTotalPlans",
            "outputs": [
                {
                    "internalType": "uint256",
                    "name": "",
                    "type": "uint256"
                }
            ],
            "stateMutability": "view",
            "type": "function"
        },
        {
            "inputs": [
                {
                    "internalType": "address",
                    "name": "user",
                    "type": "address"
                }
            ],
            "name": "getUserSubscriptionHistory",
            "outputs": [
                {
                    "internalType": "uint256[]",
                    "name": "",
                    "type": "uint256[]"
                }
            ],
            "stateMutability": "view",
            "type": "function"
        },
        {
            "inputs": [],
            "name": "gracePeriod",
            "outputs": [
                {
                    "internalType": "uint256",
                    "name": "",
                    "type": "uint256"
                }
            ],
            "stateMutability": "view",
            "type": "function"
        },
        {
            "inputs": [
                {
                    "internalType": "bytes32",
                    "name": "role",
                    "type": "bytes32"
                },
                {
                    "internalType": "address",
                    "name": "account",
                    "type": "address"
                }
            ],
            "name": "grantRole",
            "outputs": [],
            "stateMutability": "nonpayable",
            "type": "function"
        },
        {
            "inputs": [
                {
                    "internalType": "address",
                    "name": "user",
                    "type": "address"
                }
            ],
            "name": "hasActiveSubscription",
            "outputs": [
                {
                    "internalType": "bool",
                    "name": "",
                    "type": "bool"
                }
            ],
            "stateMutability": "view",
            "type": "function"
        },
        {
            "inputs": [
                {
                    "internalType": "bytes32",
                    "name": "role",
                    "type": "bytes32"
                },
                {
                    "internalType": "address",
                    "name": "account",
                    "type": "address"
                }
            ],
            "name": "hasRole",
            "outputs": [
                {
                    "internalType": "bool",
                    "name": "",
                    "type": "bool"
                }
            ],
            "stateMutability": "view",
            "type": "function"
        },
        {
            "inputs": [],
            "name": "nextPlanId",
            "outputs": [
                {
                    "internalType": "uint256",
                    "name": "",
                    "type": "uint256"
                }
            ],
            "stateMutability": "view",
            "type": "function"
        },
        {
            "inputs": [],
            "name": "owner",
            "outputs": [
                {
                    "internalType": "address",
                    "name": "",
                    "type": "address"
                }
            ],
            "stateMutability": "view",
            "type": "function"
        },
        {
            "inputs": [],
            "name": "pause",
            "outputs": [],
            "stateMutability": "nonpayable",
            "type": "function"
        },
        {
            "inputs": [],
            "name": "paused",
            "outputs": [
                {
                    "internalType": "bool",
                    "name": "",
                    "type": "bool"
                }
            ],
            "stateMutability": "view",
            "type": "function"
        },
        {
            "inputs": [],
            "name": "paymentToken",
            "outputs": [
                {
                    "internalType": "contract IERC20",
                    "name": "",
                    "type": "address"
                }
            ],
            "stateMutability": "view",
            "type": "function"
        },
        {
            "inputs": [
                {
                    "internalType": "uint256",
                    "name": "",
                    "type": "uint256"
                }
            ],
            "name": "planSubscriberCount",
            "outputs": [
                {
                    "internalType": "uint256",
                    "name": "",
                    "type": "uint256"
                }
            ],
            "stateMutability": "view",
            "type": "function"
        },
        {
            "inputs": [
                {
                    "internalType": "uint256",
                    "name": "tokenAmount",
                    "type": "uint256"
                }
            ],
            "name": "renewEarly",
            "outputs": [],
            "stateMutability": "nonpayable",
            "type": "function"
        },
        {
            "inputs": [
                {
                    "internalType": "uint256",
                    "name": "tokenAmount",
                    "type": "uint256"
                }
            ],
            "name": "renewSubscription",
            "outputs": [],
            "stateMutability": "nonpayable",
            "type": "function"
        },
        {
            "inputs": [],
            "name": "renounceOwnership",
            "outputs": [],
            "stateMutability": "nonpayable",
            "type": "function"
        },
        {
            "inputs": [
                {
                    "internalType": "bytes32",
                    "name": "role",
                    "type": "bytes32"
                },
                {
                    "internalType": "address",
                    "name": "account",
                    "type": "address"
                }
            ],
            "name": "renounceRole",
            "outputs": [],
            "stateMutability": "nonpayable",
            "type": "function"
        },
        {
            "inputs": [
                {
                    "internalType": "bytes32",
                    "name": "role",
                    "type": "bytes32"
                },
                {
                    "internalType": "address",
                    "name": "account",
                    "type": "address"
                }
            ],
            "name": "revokeRole",
            "outputs": [],
            "stateMutability": "nonpayable",
            "type": "function"
        },
        {
            "inputs": [
                {
                    "internalType": "uint256",
                    "name": "planId",
                    "type": "uint256"
                },
                {
                    "internalType": "enum PaymentVault.PlanStatus",
                    "name": "newStatus",
                    "type": "uint8"
                }
            ],
            "name": "setPlanStatus",
            "outputs": [],
            "stateMutability": "nonpayable",
            "type": "function"
        },
        {
            "inputs": [
                {
                    "internalType": "uint256",
                    "name": "planId",
                    "type": "uint256"
                },
                {
                    "internalType": "uint256",
                    "name": "tokenAmount",
                    "type": "uint256"
                },
                {
                    "internalType": "bool",
                    "name": "autoRenew",
                    "type": "bool"
                }
            ],
            "name": "subscribe",
            "outputs": [],
            "stateMutability": "nonpayable",
            "type": "function"
        },
        {
            "inputs": [
                {
                    "internalType": "uint256",
                    "name": "",
                    "type": "uint256"
                }
            ],
            "name": "subscriptionPlans",
            "outputs": [
                {
                    "internalType": "uint256",
                    "name": "duration",
                    "type": "uint256"
                },
                {
                    "internalType": "string",
                    "name": "name",
                    "type": "string"
                },
                {
                    "internalType": "string",
                    "name": "description",
                    "type": "string"
                },
                {
                    "internalType": "enum PaymentVault.PlanStatus",
                    "name": "status",
                    "type": "uint8"
                },
                {
                    "internalType": "uint256",
                    "name": "createdAt",
                    "type": "uint256"
                },
                {
                    "internalType": "uint256",
                    "name": "updatedAt",
                    "type": "uint256"
                }
            ],
            "stateMutability": "view",
            "type": "function"
        },
        {
            "inputs": [
                {
                    "internalType": "address",
                    "name": "",
                    "type": "address"
                }
            ],
            "name": "subscriptions",
            "outputs": [
                {
                    "internalType": "uint256",
                    "name": "planId",
                    "type": "uint256"
                },
                {
                    "internalType": "uint256",
                    "name": "startTime",
                    "type": "uint256"
                },
                {
                    "internalType": "uint256",
                    "name": "endTime",
                    "type": "uint256"
                },
                {
                    "internalType": "uint256",
                    "name": "lastPayment",
                    "type": "uint256"
                },
                {
                    "internalType": "enum PaymentVault.SubscriptionStatus",
                    "name": "status",
                    "type": "uint8"
                },
                {
                    "internalType": "bool",
                    "name": "autoRenew",
                    "type": "bool"
                },
                {
                    "internalType": "uint256",
                    "name": "totalPaid",
                    "type": "uint256"
                },
                {
                    "internalType": "uint256",
                    "name": "renewalCount",
                    "type": "uint256"
                }
            ],
            "stateMutability": "view",
            "type": "function"
        },
        {
            "inputs": [
                {
                    "internalType": "bytes4",
                    "name": "interfaceId",
                    "type": "bytes4"
                }
            ],
            "name": "supportsInterface",
            "outputs": [
                {
                    "internalType": "bool",
                    "name": "",
                    "type": "bool"
                }
            ],
            "stateMutability": "view",
            "type": "function"
        },
        {
            "inputs": [],
            "name": "toggleAutoRenew",
            "outputs": [],
            "stateMutability": "nonpayable",
            "type": "function"
        },
        {
            "inputs": [],
            "name": "totalRevenue",
            "outputs": [
                {
                    "internalType": "uint256",
                    "name": "",
                    "type": "uint256"
                }
            ],
            "stateMutability": "view",
            "type": "function"
        },
        {
            "inputs": [],
            "name": "totalSubscribers",
            "outputs": [
                {
                    "internalType": "uint256",
                    "name": "",
                    "type": "uint256"
                }
            ],
            "stateMutability": "view",
            "type": "function"
        },
        {
            "inputs": [
                {
                    "internalType": "address",
                    "name": "newOwner",
                    "type": "address"
                }
            ],
            "name": "transferOwnership",
            "outputs": [],
            "stateMutability": "nonpayable",
            "type": "function"
        },
        {
            "inputs": [],
            "name": "treasury",
            "outputs": [
                {
                    "internalType": "address",
                    "name": "",
                    "type": "address"
                }
            ],
            "stateMutability": "view",
            "type": "function"
        },
        {
            "inputs": [],
            "name": "unpause",
            "outputs": [],
            "stateMutability": "nonpayable",
            "type": "function"
        },
        {
            "inputs": [
                {
                    "internalType": "uint256",
                    "name": "newGracePeriod",
                    "type": "uint256"
                }
            ],
            "name": "updateGracePeriod",
            "outputs": [],
            "stateMutability": "nonpayable",
            "type": "function"
        },
        {
            "inputs": [
                {
                    "internalType": "uint256",
                    "name": "planId",
                    "type": "uint256"
                },
                {
                    "internalType": "uint256",
                    "name": "newDuration",
                    "type": "uint256"
                }
            ],
            "name": "updatePlan",
            "outputs": [],
            "stateMutability": "nonpayable",
            "type": "function"
        },
        {
            "inputs": [
                {
                    "internalType": "address",
                    "name": "newTreasury",
                    "type": "address"
                }
            ],
            "name": "updateTreasury",
            "outputs": [],
            "stateMutability": "nonpayable",
            "type": "function"
        },
        {
            "inputs": [
                {
                    "internalType": "address",
                    "name": "",
                    "type": "address"
                },
                {
                    "internalType": "uint256",
                    "name": "",
                    "type": "uint256"
                }
            ],
            "name": "userSubscriptionHistory",
            "outputs": [
                {
                    "internalType": "uint256",
                    "name": "",
                    "type": "uint256"
                }
            ],
            "stateMutability": "view",
            "type": "function"
        }
    ],
    "bytecode": "0x60a0604052600160045562093a806005553480156200001d57600080fd5b50604051620039143803806200391483398101604081905262000040916200025f565b6200004b336200014f565b60016002556003805460ff191690556001600160a01b03831615806200007857506001600160a01b038216155b806200008b57506001600160a01b038116155b15620000aa5760405163e2566a3d60e01b815260040160405180910390fd5b6001600160a01b038084166080526003805491841661010002610100600160a81b0319909216919091179055620000e3600082620001a1565b6200010f7fb19546dff01e856fb3f010c267a7b1c60363cf8a4664e21cc89c26224620214e82620001a1565b6200013b7fa49807205ce4d355092ef5a8a18f56e8913cf4a201fbe287825b095693c2177582620001a1565b62000146816200014f565b505050620002a9565b600180546001600160a01b038381166001600160a01b0319831681179093556040519116919082907f8be0079c531659141344cd1fd0a4f28419497f9722a3daafe3b4186f6b6457e090600090a35050565b6000828152602081815260408083206001600160a01b038516845290915290205460ff166200023e576000828152602081815260408083206001600160a01b03851684529091529020805460ff19166001179055620001fd3390565b6001600160a01b0316816001600160a01b0316837f2f8788117e7eff1d82e926ec794901d17c78024a50270940304540a733656f0d60405160405180910390a45b5050565b80516001600160a01b03811681146200025a57600080fd5b919050565b6000806000606084860312156200027557600080fd5b620002808462000242565b9250620002906020850162000242565b9150620002a06040850162000242565b90509250925092565b608051613633620002e1600039600081816103390152818161112d0152818161174301528181611cda015261218d01526136336000f3fe608060405234801561001057600080fd5b50600436106102195760003560e01c8062e1801c1461021e57806301ffc9a714610233578063087aedb61461025b5780630cbebc241461026e57806315e2475f1461028e57806319515584146102a5578063248a9ca3146102ae57806324e9edb0146102c157806326cd5274146102c9578063284c7f35146102e95780632d04a3291461030e5780632f2ff15d146103215780633013ce291461033457806336568abe1461036857806336a73e201461037b57806338d7a8ff146103835780633f4ba83a146103965780634e4f49121461039e5780635ab98d5a146103b15780635ae1c0c0146103c45780635c975abb146103e45780635f8d26b2146103ef57806361d027b3146103f857806366886b6714610410578063715018a61461043057806375b238fc146104385780637918dbfb1461044d5780637b750eed146104605780637f51bb1f146104735780638456cb591461048657806388860e4e1461048e5780638da5cb5b1461049657806391d148541461049e5780639f78ff0f146104b1578063a06db7dc146104c4578063a217fddf146104cd578063bebe4a57146104d5578063bf2d9e0b146104e8578063d547741f146104f1578063d71bb37b14610504578063dfe6b5d614610517578063e58378bb1461053f578063f046395a14610554578063f2fde38b146105bf578063f5b541a6146105d2578063f68bc547146105e7575b600080fd5b61023161022c366004612cfc565b610607565b005b610246610241366004612d1e565b6106c8565b60405190151581526020015b60405180910390f35b610231610269366004612d48565b6106ff565b61028161027c366004612d98565b6107cb565b6040516102529190612ddd565b61029760075481565b604051908152602001610252565b61029760085481565b6102976102bc366004612e41565b610893565b6102316108a8565b6102dc6102d7366004612e41565b610985565b6040516102529190612eba565b6102fc6102f7366004612e41565b610b26565b60405161025296959493929190612f31565b61023161031c366004612f80565b610c71565b61023161032f366004612ff4565b610dcd565b61035b7f000000000000000000000000000000000000000000000000000000000000000081565b6040516102529190613020565b610231610376366004612ff4565b610dee565b610297610e71565b610231610391366004613042565b610e87565b6102316112e4565b6102976103ac36600461311d565b611340565b6102316103bf366004612e41565b61149a565b6102976103d2366004612e41565b6000908152600c602052604090205490565b60035460ff16610246565b61029760045481565b60035461035b9061010090046001600160a01b031681565b61042361041e366004612d98565b61151c565b6040516102529190613189565b610231611588565b6102976000805160206135be83398151915281565b61029761045b3660046131cd565b61159a565b61023161046e366004612cfc565b6115cb565b610231610481366004612d98565b611863565b610231611936565b610231611990565b61035b611a47565b6102466104ac366004612ff4565b611a56565b6102316104bf366004612e41565b611a7f565b61029760055481565b610297600081565b6102466104e3366004612d98565b611de7565b61029760065481565b6102316104ff366004612ff4565b611ec1565b610231610512366004612e41565b611edd565b61051f612313565b604080519485526020850193909352918301526060820152608001610252565b61029760008051602061355e83398151915281565b6105ab610562366004612d98565b600a602052600090815260409020805460018201546002830154600384015460048501546005860154600690960154949593949293919260ff8083169361010090930416919088565b6040516102529897969594939291906131f7565b6102316105cd366004612d98565b61233f565b61029760008051602061359e83398151915281565b6102976105f5366004612e41565b600c6020526000908152604090205481565b6000805160206135be83398151915261061f81612485565b61062761248f565b82158061063657506004548310155b156106545760405163330ffbaf60e01b815260040160405180910390fd5b816000036106755760405163ddf67bcd60e01b815260040160405180910390fd5b600083815260096020908152604091829020848155426005820155915184815285917fc00f69016813c0714e0c2e862fef4d363b0d3a40691e530f1038d580bba6e07b910160405180910390a250505050565b60006001600160e01b03198216637965db0b60e01b14806106f957506301ffc9a760e01b6001600160e01b03198316145b92915050565b6000805160206135be83398151915261071781612485565b82158061072657506004548310155b156107445760405163330ffbaf60e01b815260040160405180910390fd5b6000838152600960205260409020600301805483919060ff1916600183600281111561077257610772612db3565b021790555060008381526009602052604090819020426005909101555183907f8d2bb9ca8556a5ed4e0cbb924fe738953bcfaa88c488182b31cfc44b8df04e15906107be908590613241565b60405180910390a2505050565b6107d3612c5d565b600a6000836001600160a01b03166001600160a01b0316815260200190815260200160002060405180610100016040529081600082015481526020016001820154815260200160028201548152602001600382015481526020016004820160009054906101000a900460ff16600381111561085057610850612db3565b600381111561086157610861612db3565b81526004820154610100900460ff16151560208201526005820154604082015260069091015460609091015292915050565b60009081526020819052604090206001015490565b6001336000908152600a602052604090206004015460ff1660038111156108d1576108d1612db3565b146108ef57604051631d43f2b160e11b815260040160405180910390fd5b6108f761248f565b336000908152600a6020526040812060048101805461ffff1916600317905560088054919261092583613265565b909155505080546000908152600c6020526040812080549161094683613265565b9091555050805460405142815233907fde4047f3bd050ef9b8743c61b37fd72275056d1ccb33d1eb3f22c80cb14df2899060200160405180910390a350565b61098d612cb5565b600960008381526020019081526020016000206040518060c0016040529081600082015481526020016001820180546109c59061327c565b80601f01602080910402602001604051908101604052809291908181526020018280546109f19061327c565b8015610a3e5780601f10610a1357610100808354040283529160200191610a3e565b820191906000526020600020905b815481529060010190602001808311610a2157829003601f168201915b50505050508152602001600282018054610a579061327c565b80601f0160208091040260200160405190810160405280929190818152602001828054610a839061327c565b8015610ad05780601f10610aa557610100808354040283529160200191610ad0565b820191906000526020600020905b815481529060010190602001808311610ab357829003601f168201915b5050509183525050600382015460209091019060ff166002811115610af757610af7612db3565b6002811115610b0857610b08612db3565b81526004820154602082015260059091015460409091015292915050565b60096020526000908152604090208054600182018054919291610b489061327c565b80601f0160208091040260200160405190810160405280929190818152602001828054610b749061327c565b8015610bc15780601f10610b9657610100808354040283529160200191610bc1565b820191906000526020600020905b815481529060010190602001808311610ba457829003601f168201915b505050505090806002018054610bd69061327c565b80601f0160208091040260200160405190810160405280929190818152602001828054610c029061327c565b8015610c4f5780601f10610c2457610100808354040283529160200191610c4f565b820191906000526020600020905b815481529060010190602001808311610c3257829003601f168201915b5050505060038301546004840154600590940154929360ff9091169290915086565b60008051602061359e833981519152610c8981612485565b60005b82811015610dc7576000600a6000868685818110610cac57610cac6132b6565b9050602002016020810190610cc19190612d98565b6001600160a01b03168152602081019190915260400160002090506001600482015460ff166003811115610cf757610cf7612db3565b148015610d08575042816002015411155b15610dbe5760048101805460ff1916600217905560088054906000610d2c83613265565b909155505080546000908152600c60205260408120805491610d4d83613265565b90915550508054858584818110610d6657610d666132b6565b9050602002016020810190610d7b9190612d98565b6001600160a01b03167fe16733fc8e48d586fd2bfcd14697dfe3825072515db23837a3347950b2c1915342604051610db591815260200190565b60405180910390a35b50600101610c8c565b50505050565b610dd682610893565b610ddf81612485565b610de983836124d5565b505050565b6001600160a01b0381163314610e635760405162461bcd60e51b815260206004820152602f60248201527f416363657373436f6e74726f6c3a2063616e206f6e6c792072656e6f756e636560448201526e103937b632b9903337b91039b2b63360891b60648201526084015b60405180910390fd5b610e6d8282612559565b5050565b60006001600454610e8291906132cc565b905090565b82801580610e9757506004548110155b15610eb55760405163330ffbaf60e01b815260040160405180910390fd5b600160008281526009602052604090206003015460ff166002811115610edd57610edd612db3565b14610efb5760405163ad0a8cbb60e01b815260040160405180910390fd5b610f0361248f565b610f0b6125be565b82600003610f2c576040516307606d8f60e01b815260040160405180910390fd5b336000908152600a602052604090206001600482015460ff166003811115610f5657610f56612db3565b148015610f665750428160020154115b15610f8457604051636e1e9e3b60e11b815260040160405180910390fd5b6000600960008781526020019081526020016000206040518060c001604052908160008201548152602001600182018054610fbe9061327c565b80601f0160208091040260200160405190810160405280929190818152602001828054610fea9061327c565b80156110375780601f1061100c57610100808354040283529160200191611037565b820191906000526020600020905b81548152906001019060200180831161101a57829003601f168201915b505050505081526020016002820180546110509061327c565b80601f016020809104026020016040519081016040528092919081815260200182805461107c9061327c565b80156110c95780601f1061109e576101008083540402835291602001916110c9565b820191906000526020600020905b8154815290600101906020018083116110ac57829003601f168201915b5050509183525050600382015460209091019060ff1660028111156110f0576110f0612db3565b600281111561110157611101612db3565b81526004820154602082015260059091015460409091015260035490915061115e906001600160a01b037f000000000000000000000000000000000000000000000000000000000000000081169133916101009091041688612615565b8051429060009061116f90836132df565b90506000600485015460ff16600381111561118c5761118c612db3565b036111a757600780549060006111a1836132f2565b91905055505b87845560018085018390556002850182905542600386015560048501805461ffff1916610100891515021790911790556005840180548891906000906111ee9084906132df565b9091555050600060068501819055600880549161120a836132f2565b9190505550866006600082825461122191906132df565b90915550506000888152600c60205260408120805491611240836132f2565b9091555050336000818152600b60209081526040808320805460018101825590845291909220018a9055518991907f2bdfae17037529a2e65ec70b13ee84e9aa324112f93c1598ff55cafc6b84df089061129d908690869061330b565b60405180910390a3336001600160a01b031660008051602061357e83398151915288426040516112ce92919061330b565b60405180910390a250505050610dc76001600255565b6112fc60008051602061355e83398151915233611a56565b15801561131957503361130d611a47565b6001600160a01b031614155b156113365760405162461bcd60e51b8152600401610e5a90613319565b61133e61266f565b565b60006000805160206135be83398151915261135a81612485565b61136261248f565b826000036113835760405163ddf67bcd60e01b815260040160405180910390fd5b6004805460009182611394836132f2565b9190505590506040518060c00160405280858152602001878152602001868152602001600160028111156113ca576113ca612db3565b8152426020808301829052604092830191909152600084815260098252919091208251815590820151600182019061140290826133aa565b506040820151600282019061141790826133aa565b50606082015160038201805460ff1916600183600281111561143b5761143b612db3565b02179055506080820151816004015560a08201518160050155905050807f135a65e1936006594178a9666e5ddf1d2099f18e72674253a206ed70ade01cc98786604051611489929190613469565b60405180910390a295945050505050565b6000805160206135be8339815191526114b281612485565b62278d008211156114d55760405162e0a97f60e61b815260040160405180910390fd5b60058054908390556040517f55c7a79c45e9a972909cd640f9336a14a84adbaf756211f162670018541101919061150f908390869061330b565b60405180910390a1505050565b6001600160a01b0381166000908152600b602090815260409182902080548351818402810184019094528084526060939283018282801561157c57602002820191906000526020600020905b815481526020019060010190808311611568575b50505050509050919050565b6115906126bb565b61133e600061271a565b600b60205281600052604060002081815481106115b657600080fd5b90600052602060002001600091509150505481565b818015806115db57506004548110155b156115f95760405163330ffbaf60e01b815260040160405180910390fd5b600160008281526009602052604090206003015460ff16600281111561162157611621612db3565b1461163f5760405163ad0a8cbb60e01b815260040160405180910390fd5b6001336000908152600a602052604090206004015460ff16600381111561166857611668612db3565b1461168657604051631d43f2b160e11b815260040160405180910390fd5b61168e61248f565b6116966125be565b816000036116b7576040516307606d8f60e01b815260040160405180910390fd5b336000908152600a6020526040902080548490036116e85760405163a54b445960e01b815260040160405180910390fd5b8054600282015460009042106116ff57600061170f565b42836002015461170f91906132cc565b90508060000361173257604051631d43f2b160e11b815260040160405180910390fd5b600354611774906001600160a01b037f000000000000000000000000000000000000000000000000000000000000000081169133916101009091041688612615565b846006600082825461178691906132df565b92505081905550848360050160008282546117a191906132df565b90915550508583556117b381426132df565b60028401556000828152600c602052604081208054916117d283613265565b90915550506000868152600c602052604081208054916117f1836132f2565b90915550506040518690839033907fe88daec36392a30103e5d4eba5fffb34bd058b70012539d10895864157d7019890600090a4336001600160a01b031660008051602061357e833981519152864260405161184e92919061330b565b60405180910390a2505050610de96001600255565b61187b60008051602061355e83398151915233611a56565b15801561189857503361188c611a47565b6001600160a01b031614155b156118b55760405162461bcd60e51b8152600401610e5a90613319565b6001600160a01b0381166118dc5760405163e2566a3d60e01b815260040160405180910390fd5b600380546001600160a01b03838116610100818102610100600160a81b031985161790945560405193909204169182907f4ab5be82436d353e61ca18726e984e561f5c1cc7c6d38b29d2553c790434705a90600090a35050565b61194e60008051602061355e83398151915233611a56565b15801561196b57503361195f611a47565b6001600160a01b031614155b156119885760405162461bcd60e51b8152600401610e5a90613319565b61133e61276c565b6001336000908152600a602052604090206004015460ff1660038111156119b9576119b9612db3565b146119d757604051631d43f2b160e11b815260040160405180910390fd5b336000818152600a602090815260409182902060048101805460ff610100808304821615810261ff00199093169290921792839055945191049093161515835292917f37ff880f3c2c6e3296bac1dfa534ac207e04dc7b8725592b2dca2d4da646dc59910160405180910390a250565b6001546001600160a01b031690565b6000918252602082815260408084206001600160a01b0393909316845291905290205460ff1690565b611a8761248f565b611a8f6125be565b80600003611ab0576040516307606d8f60e01b815260040160405180910390fd5b336000908152600a602052604090206001600482015460ff166003811115611ada57611ada612db3565b14611af857604051631d43f2b160e11b815260040160405180910390fd5b600060096000836000015481526020019081526020016000206040518060c001604052908160008201548152602001600182018054611b369061327c565b80601f0160208091040260200160405190810160405280929190818152602001828054611b629061327c565b8015611baf5780601f10611b8457610100808354040283529160200191611baf565b820191906000526020600020905b815481529060010190602001808311611b9257829003601f168201915b50505050508152602001600282018054611bc89061327c565b80601f0160208091040260200160405190810160405280929190818152602001828054611bf49061327c565b8015611c415780601f10611c1657610100808354040283529160200191611c41565b820191906000526020600020905b815481529060010190602001808311611c2457829003601f168201915b5050509183525050600382015460209091019060ff166002811115611c6857611c68612db3565b6002811115611c7957611c79612db3565b8152600482015460208201526005909101546040909101529050600181606001516002811115611cab57611cab612db3565b14611cc95760405163ad0a8cbb60e01b815260040160405180910390fd5b600354611d0b906001600160a01b037f000000000000000000000000000000000000000000000000000000000000000081169133916101009091041686612615565b80516002830154600091611d1e916132df565b600284018190554260038501556005840180549192508591600090611d449084906132df565b9091555050600683018054906000611d5b836132f2565b91905055508360066000828254611d7291906132df565b90915550508254600684015460405133916000805160206135de83398151915291611d9e91869161330b565b60405180910390a3336001600160a01b031660008051602061357e8339815191528542604051611dcf92919061330b565b60405180910390a2505050611de46001600255565b50565b6001600160a01b0381166000908152600a60209081526040808320815161010081018352815481526001820154938101939093526002810154918301919091526003808201546060840152600482015484939291608084019160ff1690811115611e5357611e53612db3565b6003811115611e6457611e64612db3565b81526004820154610100900460ff1615156020820152600582015460408201526006909101546060909101529050600181608001516003811115611eaa57611eaa612db3565b148015611eba5750428160400151115b9392505050565b611eca82610893565b611ed381612485565b610de98383612559565b611ee561248f565b611eed6125be565b80600003611f0e576040516307606d8f60e01b815260040160405180910390fd5b336000908152600a6020526040812090600482015460ff166003811115611f3757611f37612db3565b03611f555760405163d585b43960e01b815260040160405180910390fd5b6002600482015460ff166003811115611f7057611f70612db3565b148015611f8d57506005548160020154611f8a91906132df565b42115b15611fab57604051634f51249b60e11b815260040160405180910390fd5b600060096000836000015481526020019081526020016000206040518060c001604052908160008201548152602001600182018054611fe99061327c565b80601f01602080910402602001604051908101604052809291908181526020018280546120159061327c565b80156120625780601f1061203757610100808354040283529160200191612062565b820191906000526020600020905b81548152906001019060200180831161204557829003601f168201915b5050505050815260200160028201805461207b9061327c565b80601f01602080910402602001604051908101604052809291908181526020018280546120a79061327c565b80156120f45780601f106120c9576101008083540402835291602001916120f4565b820191906000526020600020905b8154815290600101906020018083116120d757829003601f168201915b5050509183525050600382015460209091019060ff16600281111561211b5761211b612db3565b600281111561212c5761212c612db3565b815260048201546020820152600590910154604090910152905060018160600151600281111561215e5761215e612db3565b1461217c5760405163ad0a8cbb60e01b815260040160405180910390fd5b6003546121be906001600160a01b037f000000000000000000000000000000000000000000000000000000000000000081169133916101009091041686612615565b60006001600484015460ff1660038111156121db576121db612db3565b1415806121ec575042836002015411155b905060004284600201541115612214578251600285015461220d91906132df565b9050612223565b825161222090426132df565b90505b6002840181905542600385015560048401805460ff191660011790556005840180548691906000906122569084906132df565b909155505060068401805490600061226d836132f2565b9190505550811561228e5760088054906000612288836132f2565b91905055505b84600660008282546122a091906132df565b90915550508354600685015460405133916000805160206135de833981519152916122cc91869161330b565b60405180910390a3336001600160a01b031660008051602061357e83398151915286426040516122fd92919061330b565b60405180910390a250505050611de46001600255565b600080600080600654600754600854600160045461233191906132cc565b935093509350935090919293565b61235760008051602061355e83398151915233611a56565b158015612374575033612368611a47565b6001600160a01b031614155b156123915760405162461bcd60e51b8152600401610e5a90613319565b6001600160a01b0381166123fb5760405162461bcd60e51b815260206004820152602b60248201527f5061796d656e745661756c743a206e6577206f776e657220697320746865207a60448201526a65726f206164647265737360a81b6064820152608401610e5a565b61240d6000612408611a47565b612559565b61242760008051602061355e833981519152612408611a47565b6124416000805160206135be833981519152612408611a47565b61244c6000826124d5565b61246460008051602061355e833981519152826124d5565b61247c6000805160206135be833981519152826124d5565b611de48161271a565b611de481336127a9565b60035460ff161561133e5760405162461bcd60e51b815260206004820152601060248201526f14185d5cd8589b194e881c185d5cd95960821b6044820152606401610e5a565b6124df8282611a56565b610e6d576000828152602081815260408083206001600160a01b03851684529091529020805460ff191660011790556125153390565b6001600160a01b0316816001600160a01b0316837f2f8788117e7eff1d82e926ec794901d17c78024a50270940304540a733656f0d60405160405180910390a45050565b6125638282611a56565b15610e6d576000828152602081815260408083206001600160a01b0385168085529252808320805460ff1916905551339285917ff6391f5c32d9c69d2a47ea670b442974b53935d1edc7fd64eb21e047a839171b9190a45050565b600280540361260f5760405162461bcd60e51b815260206004820152601f60248201527f5265656e7472616e637947756172643a207265656e7472616e742063616c6c006044820152606401610e5a565b60028055565b604080516001600160a01b0385811660248301528416604482015260648082018490528251808303909101815260849091019091526020810180516001600160e01b03166323b872dd60e01b179052610dc7908590612802565b6126776128d7565b6003805460ff191690557f5db9ee0a495bf2e6ff9c91a7834c1ba4fdd244a5e8aa4e537bd38aeae4b073aa335b6040516126b19190613020565b60405180910390a1565b336126c4611a47565b6001600160a01b03161461133e5760405162461bcd60e51b815260206004820181905260248201527f4f776e61626c653a2063616c6c6572206973206e6f7420746865206f776e65726044820152606401610e5a565b600180546001600160a01b038381166001600160a01b0319831681179093556040519116919082907f8be0079c531659141344cd1fd0a4f28419497f9722a3daafe3b4186f6b6457e090600090a35050565b61277461248f565b6003805460ff191660011790557f62e78cea01bee320cd4e420270b5ea74000d11b0c9f74754ebdbfc544b05a2586126a43390565b6127b38282611a56565b610e6d576127c081612920565b6127cb836020612932565b6040516020016127dc92919061348b565b60408051601f198184030181529082905262461bcd60e51b8252610e5a916004016134fa565b6000612857826040518060400160405280602081526020017f5361666545524332303a206c6f772d6c6576656c2063616c6c206661696c6564815250856001600160a01b0316612acd9092919063ffffffff16565b9050805160001480612878575080806020019051810190612878919061350d565b610de95760405162461bcd60e51b815260206004820152602a60248201527f5361666545524332303a204552433230206f7065726174696f6e20646964206e6044820152691bdd081cdd58d8d9595960b21b6064820152608401610e5a565b60035460ff1661133e5760405162461bcd60e51b815260206004820152601460248201527314185d5cd8589b194e881b9bdd081c185d5cd95960621b6044820152606401610e5a565b60606106f96001600160a01b03831660145b6060600061294183600261352a565b61294c9060026132df565b6001600160401b038111156129635761296361307b565b6040519080825280601f01601f19166020018201604052801561298d576020820181803683370190505b509050600360fc1b816000815181106129a8576129a86132b6565b60200101906001600160f81b031916908160001a905350600f60fb1b816001815181106129d7576129d76132b6565b60200101906001600160f81b031916908160001a90535060006129fb84600261352a565b612a069060016132df565b90505b6001811115612a7e576f181899199a1a9b1b9c1cb0b131b232b360811b85600f1660108110612a3a57612a3a6132b6565b1a60f81b828281518110612a5057612a506132b6565b60200101906001600160f81b031916908160001a90535060049490941c93612a7781613265565b9050612a09565b508315611eba5760405162461bcd60e51b815260206004820181905260248201527f537472696e67733a20686578206c656e67746820696e73756666696369656e746044820152606401610e5a565b6060612adc8484600085612ae4565b949350505050565b606082471015612b455760405162461bcd60e51b815260206004820152602660248201527f416464726573733a20696e73756666696369656e742062616c616e636520666f6044820152651c8818d85b1b60d21b6064820152608401610e5a565b600080866001600160a01b03168587604051612b619190613541565b60006040518083038185875af1925050503d8060008114612b9e576040519150601f19603f3d011682016040523d82523d6000602084013e612ba3565b606091505b5091509150612bb487838387612bbf565b979650505050505050565b60608315612c2e578251600003612c27576001600160a01b0385163b612c275760405162461bcd60e51b815260206004820152601d60248201527f416464726573733a2063616c6c20746f206e6f6e2d636f6e74726163740000006044820152606401610e5a565b5081612adc565b612adc8383815115612c435781518083602001fd5b8060405162461bcd60e51b8152600401610e5a91906134fa565b6040518061010001604052806000815260200160008152602001600081526020016000815260200160006003811115612c9857612c98612db3565b815260200160001515815260200160008152602001600081525090565b6040518060c0016040528060008152602001606081526020016060815260200160006002811115612ce857612ce8612db3565b815260200160008152602001600081525090565b60008060408385031215612d0f57600080fd5b50508035926020909101359150565b600060208284031215612d3057600080fd5b81356001600160e01b031981168114611eba57600080fd5b60008060408385031215612d5b57600080fd5b82359150602083013560038110612d7157600080fd5b809150509250929050565b80356001600160a01b0381168114612d9357600080fd5b919050565b600060208284031215612daa57600080fd5b611eba82612d7c565b634e487b7160e01b600052602160045260246000fd5b60048110612dd957612dd9612db3565b9052565b600061010082019050825182526020830151602083015260408301516040830152606083015160608301526080830151612e1a6080840182612dc9565b5060a0830151151560a083015260c083015160c083015260e083015160e083015292915050565b600060208284031215612e5357600080fd5b5035919050565b60005b83811015612e75578181015183820152602001612e5d565b50506000910152565b60008151808452612e96816020860160208601612e5a565b601f01601f19169290920160200192915050565b60038110612dd957612dd9612db3565b60208152815160208201526000602083015160c06040840152612ee060e0840182612e7e565b90506040840151601f19848303016060850152612efd8282612e7e565b9150506060840151612f126080850182612eaa565b50608084015160a084015260a084015160c08401528091505092915050565b86815260c060208201526000612f4a60c0830188612e7e565b8281036040840152612f5c8188612e7e565b915050612f6c6060830186612eaa565b608082019390935260a00152949350505050565b60008060208385031215612f9357600080fd5b82356001600160401b0380821115612faa57600080fd5b818501915085601f830112612fbe57600080fd5b813581811115612fcd57600080fd5b8660208260051b8501011115612fe257600080fd5b60209290920196919550909350505050565b6000806040838503121561300757600080fd5b8235915061301760208401612d7c565b90509250929050565b6001600160a01b0391909116815260200190565b8015158114611de457600080fd5b60008060006060848603121561305757600080fd5b8335925060208401359150604084013561307081613034565b809150509250925092565b634e487b7160e01b600052604160045260246000fd5b600082601f8301126130a257600080fd5b81356001600160401b03808211156130bc576130bc61307b565b604051601f8301601f19908116603f011681019082821181831017156130e4576130e461307b565b816040528381528660208588010111156130fd57600080fd5b836020870160208301376000602085830101528094505050505092915050565b60008060006060848603121561313257600080fd5b83356001600160401b038082111561314957600080fd5b61315587838801613091565b9450602086013591508082111561316b57600080fd5b5061317886828701613091565b925050604084013590509250925092565b6020808252825182820181905260009190848201906040850190845b818110156131c1578351835292840192918401916001016131a5565b50909695505050505050565b600080604083850312156131e057600080fd5b6131e983612d7c565b946020939093013593505050565b6000610100820190508982528860208301528760408301528660608301526132226080830187612dc9565b93151560a082015260c081019290925260e09091015295945050505050565b602081016106f98284612eaa565b634e487b7160e01b600052601160045260246000fd5b6000816132745761327461324f565b506000190190565b600181811c9082168061329057607f821691505b6020821081036132b057634e487b7160e01b600052602260045260246000fd5b50919050565b634e487b7160e01b600052603260045260246000fd5b818103818111156106f9576106f961324f565b808201808211156106f9576106f961324f565b6000600182016133045761330461324f565b5060010190565b918252602082015260400190565b60208082526021908201527f5061796d656e745661756c743a2063616c6c6572206973206e6f74206f776e656040820152603960f91b606082015260800190565b601f821115610de9576000816000526020600020601f850160051c810160208610156133835750805b601f850160051c820191505b818110156133a25782815560010161338f565b505050505050565b81516001600160401b038111156133c3576133c361307b565b6133d7816133d1845461327c565b8461335a565b602080601f83116001811461340c57600084156133f45750858301515b600019600386901b1c1916600185901b1785556133a2565b600085815260208120601f198616915b8281101561343b5788860151825594840194600190910190840161341c565b50858210156134595787850151600019600388901b60f8161c191681555b5050505050600190811b01905550565b60408152600061347c6040830185612e7e565b90508260208301529392505050565b76020b1b1b2b9b9a1b7b73a3937b61d1030b1b1b7bab73a1604d1b8152600083516134bd816017850160208801612e5a565b7001034b99036b4b9b9b4b733903937b6329607d1b60179184019182015283516134ee816028840160208801612e5a565b01602801949350505050565b602081526000611eba6020830184612e7e565b60006020828403121561351f57600080fd5b8151611eba81613034565b80820281158282048414176106f9576106f961324f565b60008251613553818460208701612e5a565b919091019291505056feb19546dff01e856fb3f010c267a7b1c60363cf8a4664e21cc89c26224620214e7bd379b31566817ff79103ff210fc7d86fa755c249a8dc25f96618362789e19197667070c54ef182b0f5858b034beac1b6f3089aa2d3188bb1e8929f4fa9b929a49807205ce4d355092ef5a8a18f56e8913cf4a201fbe287825b095693c21775fe01073167767dbd16dd9b930ce65409aa1acb6da9f78e05c513dc8ed4e7a0e7a2646970667358221220046331637439d13744348141e124f03d7d3a895f4bdeb409a08725fd477740f164736f6c63430008180033",
    "linkReferences": {},
    "deployedLinkReferences": {}
}