{
    "address": "0xDB4638693068c8fd627F180D3fC921D93E98e10a",
    "abi": [
        {
            "inputs": [
                {
                    "internalType": "address",
                    "name": "_stakingToken",
                    "type": "address"
                }
            ],
            "stateMutability": "nonpayable",
            "type": "constructor"
        },
        {
            "inputs": [],
            "name": "AlreadyAdmin",
            "type": "error"
        },
        {
            "inputs": [],
            "name": "InsufficientBalance",
            "type": "error"
        },
        {
            "inputs": [],
            "name": "InsufficientStake",
            "type": "error"
        },
        {
            "inputs": [],
            "name": "NotAdmin",
            "type": "error"
        },
        {
            "inputs": [],
            "name": "OnlyOwner",
            "type": "error"
        },
        {
            "inputs": [],
            "name": "OnlyOwnerOrAdmin",
            "type": "error"
        },
        {
            "inputs": [],
            "name": "StakingPaused",
            "type": "error"
        },
        {
            "inputs": [],
            "name": "ZeroAddress",
            "type": "error"
        },
        {
            "inputs": [],
            "name": "ZeroAmount",
            "type": "error"
        },
        {
            "anonymous": false,
            "inputs": [
                {
                    "indexed": true,
                    "internalType": "address",
                    "name": "admin",
                    "type": "address"
                }
            ],
            "name": "AdminAdded",
            "type": "event"
        },
        {
            "anonymous": false,
            "inputs": [
                {
                    "indexed": true,
                    "internalType": "address",
                    "name": "admin",
                    "type": "address"
                }
            ],
            "name": "AdminRemoved",
            "type": "event"
        },
        {
            "anonymous": false,
            "inputs": [
                {
                    "indexed": true,
                    "internalType": "address",
                    "name": "user",
                    "type": "address"
                },
                {
                    "indexed": false,
                    "internalType": "uint256",
                    "name": "amount",
                    "type": "uint256"
                }
            ],
            "name": "Staked",
            "type": "event"
        },
        {
            "anonymous": false,
            "inputs": [
                {
                    "indexed": false,
                    "internalType": "bool",
                    "name": "paused",
                    "type": "bool"
                }
            ],
            "name": "StakingPausedUpdated",
            "type": "event"
        },
        {
            "anonymous": false,
            "inputs": [
                {
                    "indexed": true,
                    "internalType": "address",
                    "name": "user",
                    "type": "address"
                },
                {
                    "indexed": false,
                    "internalType": "uint256",
                    "name": "amount",
                    "type": "uint256"
                }
            ],
            "name": "Unstaked",
            "type": "event"
        },
        {
            "anonymous": false,
            "inputs": [
                {
                    "indexed": true,
                    "internalType": "address",
                    "name": "user",
                    "type": "address"
                },
                {
                    "indexed": true,
                    "internalType": "address",
                    "name": "to",
                    "type": "address"
                },
                {
                    "indexed": false,
                    "internalType": "uint256",
                    "name": "amount",
                    "type": "uint256"
                }
            ],
            "name": "Withdrawal",
            "type": "event"
        },
        {
            "inputs": [
                {
                    "internalType": "address",
                    "name": "_admin",
                    "type": "address"
                }
            ],
            "name": "addAdmin",
            "outputs": [],
            "stateMutability": "nonpayable",
            "type": "function"
        },
        {
            "inputs": [
                {
                    "internalType": "address",
                    "name": "",
                    "type": "address"
                }
            ],
            "name": "admins",
            "outputs": [
                {
                    "internalType": "bool",
                    "name": "",
                    "type": "bool"
                }
            ],
            "stateMutability": "view",
            "type": "function"
        },
        {
            "inputs": [],
            "name": "getAvailableForWithdrawal",
            "outputs": [
                {
                    "internalType": "uint256",
                    "name": "",
                    "type": "uint256"
                }
            ],
            "stateMutability": "view",
            "type": "function"
        },
        {
            "inputs": [],
            "name": "getTotalStaked",
            "outputs": [
                {
                    "internalType": "uint256",
                    "name": "",
                    "type": "uint256"
                }
            ],
            "stateMutability": "view",
            "type": "function"
        },
        {
            "inputs": [
                {
                    "internalType": "address",
                    "name": "_user",
                    "type": "address"
                }
            ],
            "name": "getUserStake",
            "outputs": [
                {
                    "internalType": "uint256",
                    "name": "",
                    "type": "uint256"
                }
            ],
            "stateMutability": "view",
            "type": "function"
        },
        {
            "inputs": [],
            "name": "getVaultBalance",
            "outputs": [
                {
                    "internalType": "uint256",
                    "name": "",
                    "type": "uint256"
                }
            ],
            "stateMutability": "view",
            "type": "function"
        },
        {
            "inputs": [
                {
                    "internalType": "address",
                    "name": "_address",
                    "type": "address"
                }
            ],
            "name": "isAdmin",
            "outputs": [
                {
                    "internalType": "bool",
                    "name": "",
                    "type": "bool"
                }
            ],
            "stateMutability": "view",
            "type": "function"
        },
        {
            "inputs": [],
            "name": "isStakingPaused",
            "outputs": [
                {
                    "internalType": "bool",
                    "name": "",
                    "type": "bool"
                }
            ],
            "stateMutability": "view",
            "type": "function"
        },
        {
            "inputs": [],
            "name": "owner",
            "outputs": [
                {
                    "internalType": "address",
                    "name": "",
                    "type": "address"
                }
            ],
            "stateMutability": "view",
            "type": "function"
        },
        {
            "inputs": [
                {
                    "internalType": "address",
                    "name": "_admin",
                    "type": "address"
                }
            ],
            "name": "removeAdmin",
            "outputs": [],
            "stateMutability": "nonpayable",
            "type": "function"
        },
        {
            "inputs": [
                {
                    "internalType": "uint256",
                    "name": "_amount",
                    "type": "uint256"
                }
            ],
            "name": "stake",
            "outputs": [],
            "stateMutability": "nonpayable",
            "type": "function"
        },
        {
            "inputs": [],
            "name": "stakingToken",
            "outputs": [
                {
                    "internalType": "contract IERC20",
                    "name": "",
                    "type": "address"
                }
            ],
            "stateMutability": "view",
            "type": "function"
        },
        {
            "inputs": [],
            "name": "toggleStakingPause",
            "outputs": [],
            "stateMutability": "nonpayable",
            "type": "function"
        },
        {
            "inputs": [],
            "name": "totalStaked",
            "outputs": [
                {
                    "internalType": "uint256",
                    "name": "",
                    "type": "uint256"
                }
            ],
            "stateMutability": "view",
            "type": "function"
        },
        {
            "inputs": [
                {
                    "internalType": "uint256",
                    "name": "_amount",
                    "type": "uint256"
                }
            ],
            "name": "unstake",
            "outputs": [],
            "stateMutability": "nonpayable",
            "type": "function"
        },
        {
            "inputs": [],
            "name": "unstakeAll",
            "outputs": [],
            "stateMutability": "nonpayable",
            "type": "function"
        },
        {
            "inputs": [
                {
                    "internalType": "address",
                    "name": "_user",
                    "type": "address"
                }
            ],
            "name": "unstakeAllForUser",
            "outputs": [],
            "stateMutability": "nonpayable",
            "type": "function"
        },
        {
            "inputs": [
                {
                    "internalType": "address",
                    "name": "_user",
                    "type": "address"
                },
                {
                    "internalType": "uint256",
                    "name": "_amount",
                    "type": "uint256"
                }
            ],
            "name": "unstakeForUser",
            "outputs": [],
            "stateMutability": "nonpayable",
            "type": "function"
        },
        {
            "inputs": [
                {
                    "internalType": "address",
                    "name": "",
                    "type": "address"
                }
            ],
            "name": "userStakes",
            "outputs": [
                {
                    "internalType": "uint256",
                    "name": "",
                    "type": "uint256"
                }
            ],
            "stateMutability": "view",
            "type": "function"
        },
        {
            "inputs": [
                {
                    "internalType": "uint256",
                    "name": "_amount",
                    "type": "uint256"
                },
                {
                    "internalType": "address",
                    "name": "_to",
                    "type": "address"
                }
            ],
            "name": "withdraw",
            "outputs": [],
            "stateMutability": "nonpayable",
            "type": "function"
        }
    ],
    "transactionHash": "0xef4e4d1d04dd83b9c27bed2768cfd6a9ccc5c74f6b659ad0c80a90e412b82873",
    "args": [
        "0x1234567890123456789012345678901234567890"
    ],
    "numDeployments": 1,
    "solcInputHash": "b2696075e8ac2f513ec8f96e88a36260",
    "bytecode": "0x60c060405234801561001057600080fd5b506040516111db3803806111db83398101604081905261002f91610070565b60016000556001600160a01b03811661005b5760405163d92e233d60e01b815260040160405180910390fd5b6001600160a01b03166080523360a0526100a0565b60006020828403121561008257600080fd5b81516001600160a01b038116811461009957600080fd5b9392505050565b60805160a0516110c961011260003960008181610249015281816102e201528181610437015281816104cd015281816106d701528181610848015261091601526000818161020c015281816103c001528181610629015281816107e101528181610a560152610b3701526110c96000f3fe608060405234801561001057600080fd5b50600436106100fb5760003560e01c8062f714ce146101005780630917e77614610115578063167f141a1461012c5780631785f53c146101345780631ea7ca891461014757806324d7806c146101645780632e17de781461019057806335322f37146101a3578063429b62e5146101ab57806352fca038146101ce5780635526af0b146101e157806370480275146101f457806372f702f314610207578063817b1cd21461023b5780638da5cb5b146102445780638da7ad231461026b578063a694fc3a1461028b578063bbadc93a1461029e578063c44633e9146102c7578063ed12e8ef146102cf575b600080fd5b61011361010e366004610ede565b6102d7565b005b6003545b6040519081526020015b60405180910390f35b61011361042c565b610113610142366004610f0a565b6104c2565b6004546101549060ff1681565b6040519015158152602001610123565b610154610172366004610f0a565b6001600160a01b031660009081526001602052604090205460ff1690565b61011361019e366004610f2c565b61058d565b610113610677565b6101546101b9366004610f0a565b60016020526000908152604090205460ff1681565b6101136101dc366004610f45565b6106cc565b6101136101ef366004610f0a565b61083d565b610113610202366004610f0a565b61090b565b61022e7f000000000000000000000000000000000000000000000000000000000000000081565b6040516101239190610f6f565b61011960035481565b61022e7f000000000000000000000000000000000000000000000000000000000000000081565b610119610279366004610f0a565b60026020526000908152604090205481565b610113610299366004610f2c565b610a04565b6101196102ac366004610f0a565b6001600160a01b031660009081526002602052604090205490565b610119610aed565b610119610b1d565b336001600160a01b037f0000000000000000000000000000000000000000000000000000000000000000161480159061032057503360009081526001602052604090205460ff16155b1561033e57604051636f0cab8b60e11b815260040160405180910390fd5b6001600160a01b0381166103655760405163d92e233d60e01b815260040160405180910390fd5b8160000361038657604051631f2a200560e01b815260040160405180910390fd5b6000610390610aed565b9050828110156103b357604051631e9acf1760e31b815260040160405180910390fd5b6103e76001600160a01b037f0000000000000000000000000000000000000000000000000000000000000000168385610bb2565b6040518381526001600160a01b0383169033907f2717ead6b9200dd235aad468c9809ea400fe33ac69b5bfaa6d3e90fc922b63989060200160405180910390a3505050565b336001600160a01b037f0000000000000000000000000000000000000000000000000000000000000000161461047557604051635fc483c560e01b815260040160405180910390fd5b6004805460ff8082161560ff1990921682179092556040519116151581527fcd3558c83dfc8718cd8d706c135d743763f92eaa337eaa6b858cb34836e63ad39060200160405180910390a1565b336001600160a01b037f0000000000000000000000000000000000000000000000000000000000000000161461050b57604051635fc483c560e01b815260040160405180910390fd5b6001600160a01b03811660009081526001602052604090205460ff1661054457604051637bfa4b9f60e01b815260040160405180910390fd5b6001600160a01b038116600081815260016020526040808220805460ff19169055517fa3b62bc36326052d97ea62d63c3d60308ed4c3ea8ac079dd8499f1e9c4f80c0f9190a250565b806000036105ae57604051631f2a200560e01b815260040160405180910390fd5b336000908152600260205260409020548111156105de576040516378de4a6960e11b815260040160405180910390fd5b33600090815260026020526040812080548392906105fd908490610f99565b9250508190555080600360008282546106169190610f99565b9091555061065090506001600160a01b037f0000000000000000000000000000000000000000000000000000000000000000163383610bb2565b6040518181523390600080516020611074833981519152906020015b60405180910390a250565b33600090815260026020526040812054908190036106a8576040516378de4a6960e11b815260040160405180910390fd5b33600090815260026020526040812081905560038054839290610616908490610f99565b336001600160a01b037f0000000000000000000000000000000000000000000000000000000000000000161480159061071557503360009081526001602052604090205460ff16155b1561073357604051636f0cab8b60e11b815260040160405180910390fd5b8060000361075457604051631f2a200560e01b815260040160405180910390fd5b6001600160a01b03821660009081526002602052604090205481111561078d576040516378de4a6960e11b815260040160405180910390fd5b6001600160a01b038216600090815260026020526040812080548392906107b5908490610f99565b9250508190555080600360008282546107ce9190610f99565b9091555061080890506001600160a01b037f0000000000000000000000000000000000000000000000000000000000000000168383610bb2565b816001600160a01b03166000805160206110748339815191528260405161083191815260200190565b60405180910390a25050565b336001600160a01b037f0000000000000000000000000000000000000000000000000000000000000000161480159061088657503360009081526001602052604090205460ff16155b156108a457604051636f0cab8b60e11b815260040160405180910390fd5b6001600160a01b038116600090815260026020526040812054908190036108de576040516378de4a6960e11b815260040160405180910390fd5b6001600160a01b0382166000908152600260205260408120819055600380548392906107ce908490610f99565b336001600160a01b037f0000000000000000000000000000000000000000000000000000000000000000161461095457604051635fc483c560e01b815260040160405180910390fd5b6001600160a01b03811661097b5760405163d92e233d60e01b815260040160405180910390fd5b6001600160a01b03811660009081526001602052604090205460ff16156109b557604051631c3681a560e11b815260040160405180910390fd5b6001600160a01b0381166000818152600160208190526040808320805460ff1916909217909155517f44d6d25963f097ad14f29f06854a01f575648a1ef82f30e562ccd3889717e3399190a250565b60045460ff1615610a28576040516326d1807b60e01b815260040160405180910390fd5b80600003610a4957604051631f2a200560e01b815260040160405180910390fd5b610a7e6001600160a01b037f000000000000000000000000000000000000000000000000000000000000000016333084610c1a565b3360009081526002602052604081208054839290610a9d908490610fb2565b925050819055508060036000828254610ab69190610fb2565b909155505060405181815233907f9e71bc8eea02a63969f509818f2dafb9254532904319f9dbda79b67bd34a5f3d9060200161066c565b600080610af8610b1d565b90506003548111610b0a576000610b17565b600354610b179082610f99565b91505090565b6040516370a0823160e01b81526000906001600160a01b037f000000000000000000000000000000000000000000000000000000000000000016906370a0823190610b6c903090600401610f6f565b602060405180830381865afa158015610b89573d6000803e3d6000fd5b505050506040513d601f19601f82011682018060405250810190610bad9190610fc5565b905090565b6040516001600160a01b038316602482015260448101829052610c1590849063a9059cbb60e01b906064015b60408051601f198184030181529190526020810180516001600160e01b03166001600160e01b031990931692909217909152610c58565b505050565b6040516001600160a01b0380851660248301528316604482015260648101829052610c529085906323b872dd60e01b90608401610bde565b50505050565b6000610cad826040518060400160405280602081526020017f5361666545524332303a206c6f772d6c6576656c2063616c6c206661696c6564815250856001600160a01b0316610d329092919063ffffffff16565b9050805160001480610cce575080806020019051810190610cce9190610fde565b610c155760405162461bcd60e51b815260206004820152602a60248201527f5361666545524332303a204552433230206f7065726174696f6e20646964206e6044820152691bdd081cdd58d8d9595960b21b60648201526084015b60405180910390fd5b6060610d418484600085610d49565b949350505050565b606082471015610daa5760405162461bcd60e51b815260206004820152602660248201527f416464726573733a20696e73756666696369656e742062616c616e636520666f6044820152651c8818d85b1b60d21b6064820152608401610d29565b600080866001600160a01b03168587604051610dc69190611024565b60006040518083038185875af1925050503d8060008114610e03576040519150601f19603f3d011682016040523d82523d6000602084013e610e08565b606091505b5091509150610e1987838387610e24565b979650505050505050565b60608315610e93578251600003610e8c576001600160a01b0385163b610e8c5760405162461bcd60e51b815260206004820152601d60248201527f416464726573733a2063616c6c20746f206e6f6e2d636f6e74726163740000006044820152606401610d29565b5081610d41565b610d418383815115610ea85781518083602001fd5b8060405162461bcd60e51b8152600401610d299190611040565b80356001600160a01b0381168114610ed957600080fd5b919050565b60008060408385031215610ef157600080fd5b82359150610f0160208401610ec2565b90509250929050565b600060208284031215610f1c57600080fd5b610f2582610ec2565b9392505050565b600060208284031215610f3e57600080fd5b5035919050565b60008060408385031215610f5857600080fd5b610f6183610ec2565b946020939093013593505050565b6001600160a01b0391909116815260200190565b634e487b7160e01b600052601160045260246000fd5b81810381811115610fac57610fac610f83565b92915050565b80820180821115610fac57610fac610f83565b600060208284031215610fd757600080fd5b5051919050565b600060208284031215610ff057600080fd5b81518015158114610f2557600080fd5b60005b8381101561101b578181015183820152602001611003565b50506000910152565b60008251611036818460208701611000565b9190910192915050565b602081526000825180602084015261105f816040850160208701611000565b601f01601f1916919091016040019291505056fe0f5bb82176feb1b5e747e28471aa92156a04d9f3ab9f45f28e2d704232b93f75a26469706673582212208c2b52e377a5a0ac4ea9c9ecfcd7338d85011ff32ca95ce75f26f4d1252e63a064736f6c63430008180033",
    "devdoc": {
        "kind": "dev",
        "methods": {
            "addAdmin(address)": {
                "custom:security": "Admins can withdraw excess funds but not user staked tokens",
                "details": "Only the owner can call this function. Admin will have withdrawal privileges.",
                "params": {
                    "_admin": "The address to be granted admin privileges"
                }
            },
            "removeAdmin(address)": {
                "details": "Only the owner can call this function",
                "params": {
                    "_admin": "The address to have admin privileges revoked"
                }
            },
            "stake(uint256)": {
                "custom:effects": "Increases user's stake balance and total staked amount",
                "custom:requirements": "Staking must not be paused and amount must be > 0",
                "details": "Transfers tokens from user to contract and updates staking balances",
                "params": {
                    "_amount": "The amount of tokens to stake"
                }
            },
            "toggleStakingPause()": {
                "custom:security": "Emergency function to halt new staking during incidents",
                "details": "Only the owner can pause/unpause staking. Affects new stakes only."
            },
            "unstake(uint256)": {
                "custom:effects": "Decreases user's stake balance and total staked amount",
                "custom:requirements": "User must have sufficient staked balance",
                "details": "Reduces user's stake balance and transfers tokens back to user",
                "params": {
                    "_amount": "The amount of tokens to unstake"
                }
            },
            "unstakeAll()": {
                "custom:effects": "Sets user's stake balance to 0 and reduces total staked",
                "custom:requirements": "User must have a non-zero stake balance",
                "details": "Withdraws the entire stake balance for the calling user"
            },
            "unstakeAllForUser(address)": {
                "custom:effects": "Sets user's stake balance to 0 and reduces total staked accordingly",
                "custom:security": "Admin emergency function for user assistance or protocol management",
                "details": "Only owner or admin can call this function. All user's tokens are returned.",
                "params": {
                    "_user": "The address of the user whose entire stake will be unstaked"
                }
            },
            "unstakeForUser(address,uint256)": {
                "custom:effects": "Decreases specified user's stake balance and total staked amount",
                "custom:security": "Admin emergency function for user assistance or protocol management",
                "details": "Only owner or admin can call this function. Tokens are sent to the user.",
                "params": {
                    "_amount": "The amount of tokens to unstake for the user",
                    "_user": "The address of the user whose tokens will be unstaked"
                }
            },
            "withdraw(uint256,address)": {
                "custom:effects": "Transfers excess vault tokens without affecting user balances",
                "custom:security": "Only allows withdrawal of excess funds beyond user stakes",
                "details": "Only owner or admin can withdraw. Cannot withdraw user staked tokens.",
                "params": {
                    "_amount": "The amount of excess tokens to withdraw",
                    "_to": "The address to receive the withdrawn tokens"
                }
            }
        },
        "version": 1
    },
    "userdoc": {
        "kind": "user",
        "methods": {
            "addAdmin(address)": {
                "notice": "Adds a new admin to the contract"
            },
            "removeAdmin(address)": {
                "notice": "Removes admin privileges from an address"
            },
            "stake(uint256)": {
                "notice": "Stakes tokens into the vault"
            },
            "toggleStakingPause()": {
                "notice": "Toggles the staking pause state"
            },
            "unstake(uint256)": {
                "notice": "Unstakes a specific amount of tokens"
            },
            "unstakeAll()": {
                "notice": "Unstakes all of the user's staked tokens"
            },
            "unstakeAllForUser(address)": {
                "notice": "Admin function to unstake all tokens for a specific user"
            },
            "unstakeForUser(address,uint256)": {
                "notice": "Admin function to unstake tokens on behalf of a user"
            },
            "withdraw(uint256,address)": {
                "notice": "Withdraws excess tokens from the vault (not user staked funds)"
            }
        },
        "version": 1
    },
    "storageLayout": {
        "storage": [
            {
                "astId": 10,
                "contract": "contracts/staking/StakingVault.sol:StakingVault",
                "label": "_status",
                "offset": 0,
                "slot": "0",
                "type": "t_uint256"
            },
            {
                "astId": 922,
                "contract": "contracts/staking/StakingVault.sol:StakingVault",
                "label": "admins",
                "offset": 0,
                "slot": "1",
                "type": "t_mapping(t_address,t_bool)"
            },
            {
                "astId": 926,
                "contract": "contracts/staking/StakingVault.sol:StakingVault",
                "label": "userStakes",
                "offset": 0,
                "slot": "2",
                "type": "t_mapping(t_address,t_uint256)"
            },
            {
                "astId": 928,
                "contract": "contracts/staking/StakingVault.sol:StakingVault",
                "label": "totalStaked",
                "offset": 0,
                "slot": "3",
                "type": "t_uint256"
            },
            {
                "astId": 930,
                "contract": "contracts/staking/StakingVault.sol:StakingVault",
                "label": "isStakingPaused",
                "offset": 0,
                "slot": "4",
                "type": "t_bool"
            }
        ],
        "types": {
            "t_address": {
                "encoding": "inplace",
                "label": "address",
                "numberOfBytes": "20"
            },
            "t_bool": {
                "encoding": "inplace",
                "label": "bool",
                "numberOfBytes": "1"
            },
            "t_mapping(t_address,t_bool)": {
                "encoding": "mapping",
                "key": "t_address",
                "label": "mapping(address => bool)",
                "numberOfBytes": "32",
                "value": "t_bool"
            },
            "t_mapping(t_address,t_uint256)": {
                "encoding": "mapping",
                "key": "t_address",
                "label": "mapping(address => uint256)",
                "numberOfBytes": "32",
                "value": "t_uint256"
            },
            "t_uint256": {
                "encoding": "inplace",
                "label": "uint256",
                "numberOfBytes": "32"
            }
        }
    }
}