{
  "address": "0xa2594dEd25aD058a04f3068120f3ce56bB3EEBcB",
  "abi": [
    {
      "inputs": [
        {
          "internalType": "address",
          "name": "_stakingToken",
          "type": "address"
        }
      ],
      "stateMutability": "nonpayable",
      "type": "constructor"
    },
    {
      "inputs": [],
      "name": "StakingVault__InsufficientBalance",
      "type": "error"
    },
    {
      "inputs": [],
      "name": "StakingVault__InsufficientStake",
      "type": "error"
    },
    {
      "inputs": [],
      "name": "StakingVault__InsufficientUnstakeRequest",
      "type": "error"
    },
    {
      "inputs": [],
      "name": "StakingVault__InvalidLockPeriod",
      "type": "error"
    },
    {
      "inputs": [],
      "name": "StakingVault__NoUnstakeRequest",
      "type": "error"
    },
    {
      "inputs": [],
      "name": "StakingVault__UnstakeStillLocked",
      "type": "error"
    },
    {
      "inputs": [],
      "name": "StakingVault__ZeroAddress",
      "type": "error"
    },
    {
      "inputs": [],
      "name": "StakingVault__ZeroAmount",
      "type": "error"
    },
    {
      "anonymous": false,
      "inputs": [
        {
          "indexed": false,
          "internalType": "uint256",
          "name": "oldLockPeriod",
          "type": "uint256"
        },
        {
          "indexed": false,
          "internalType": "uint256",
          "name": "newLockPeriod",
          "type": "uint256"
        },
        {
          "indexed": false,
          "internalType": "address",
          "name": "updatedBy",
          "type": "address"
        }
      ],
      "name": "LockPeriodUpdated",
      "type": "event"
    },
    {
      "anonymous": false,
      "inputs": [
        {
          "indexed": true,
          "internalType": "address",
          "name": "previousOwner",
          "type": "address"
        },
        {
          "indexed": true,
          "internalType": "address",
          "name": "newOwner",
          "type": "address"
        }
      ],
      "name": "OwnershipTransferred",
      "type": "event"
    },
    {
      "anonymous": false,
      "inputs": [
        {
          "indexed": false,
          "internalType": "address",
          "name": "account",
          "type": "address"
        }
      ],
      "name": "Paused",
      "type": "event"
    },
    {
      "anonymous": false,
      "inputs": [
        {
          "indexed": true,
          "internalType": "bytes32",
          "name": "role",
          "type": "bytes32"
        },
        {
          "indexed": true,
          "internalType": "bytes32",
          "name": "previousAdminRole",
          "type": "bytes32"
        },
        {
          "indexed": true,
          "internalType": "bytes32",
          "name": "newAdminRole",
          "type": "bytes32"
        }
      ],
      "name": "RoleAdminChanged",
      "type": "event"
    },
    {
      "anonymous": false,
      "inputs": [
        {
          "indexed": true,
          "internalType": "bytes32",
          "name": "role",
          "type": "bytes32"
        },
        {
          "indexed": true,
          "internalType": "address",
          "name": "account",
          "type": "address"
        },
        {
          "indexed": true,
          "internalType": "address",
          "name": "sender",
          "type": "address"
        }
      ],
      "name": "RoleGranted",
      "type": "event"
    },
    {
      "anonymous": false,
      "inputs": [
        {
          "indexed": true,
          "internalType": "bytes32",
          "name": "role",
          "type": "bytes32"
        },
        {
          "indexed": true,
          "internalType": "address",
          "name": "account",
          "type": "address"
        },
        {
          "indexed": true,
          "internalType": "address",
          "name": "sender",
          "type": "address"
        }
      ],
      "name": "RoleRevoked",
      "type": "event"
    },
    {
      "anonymous": false,
      "inputs": [
        {
          "indexed": true,
          "internalType": "address",
          "name": "user",
          "type": "address"
        },
        {
          "indexed": false,
          "internalType": "uint256",
          "name": "amount",
          "type": "uint256"
        },
        {
          "indexed": false,
          "internalType": "uint256",
          "name": "timestamp",
          "type": "uint256"
        }
      ],
      "name": "Staked",
      "type": "event"
    },
    {
      "anonymous": false,
      "inputs": [
        {
          "indexed": false,
          "internalType": "address",
          "name": "account",
          "type": "address"
        }
      ],
      "name": "Unpaused",
      "type": "event"
    },
    {
      "anonymous": false,
      "inputs": [
        {
          "indexed": true,
          "internalType": "address",
          "name": "user",
          "type": "address"
        },
        {
          "indexed": false,
          "internalType": "uint256",
          "name": "id",
          "type": "uint256"
        },
        {
          "indexed": false,
          "internalType": "uint256",
          "name": "amount",
          "type": "uint256"
        }
      ],
      "name": "UnstakeCancelled",
      "type": "event"
    },
    {
      "anonymous": false,
      "inputs": [
        {
          "indexed": true,
          "internalType": "address",
          "name": "user",
          "type": "address"
        },
        {
          "indexed": false,
          "internalType": "uint256",
          "name": "id",
          "type": "uint256"
        },
        {
          "indexed": false,
          "internalType": "uint256",
          "name": "amount",
          "type": "uint256"
        },
        {
          "indexed": false,
          "internalType": "uint256",
          "name": "availableAt",
          "type": "uint256"
        }
      ],
      "name": "UnstakeRequested",
      "type": "event"
    },
    {
      "anonymous": false,
      "inputs": [
        {
          "indexed": true,
          "internalType": "address",
          "name": "user",
          "type": "address"
        },
        {
          "indexed": false,
          "internalType": "uint256",
          "name": "id",
          "type": "uint256"
        },
        {
          "indexed": false,
          "internalType": "uint256",
          "name": "amount",
          "type": "uint256"
        }
      ],
      "name": "UnstakeWithdrawn",
      "type": "event"
    },
    {
      "anonymous": false,
      "inputs": [
        {
          "indexed": true,
          "internalType": "address",
          "name": "user",
          "type": "address"
        },
        {
          "indexed": true,
          "internalType": "address",
          "name": "to",
          "type": "address"
        },
        {
          "indexed": false,
          "internalType": "uint256",
          "name": "amount",
          "type": "uint256"
        }
      ],
      "name": "Withdrawal",
      "type": "event"
    },
    {
      "inputs": [],
      "name": "ADMIN_ROLE",
      "outputs": [
        {
          "internalType": "bytes32",
          "name": "",
          "type": "bytes32"
        }
      ],
      "stateMutability": "view",
      "type": "function"
    },
    {
      "inputs": [],
      "name": "DEFAULT_ADMIN_ROLE",
      "outputs": [
        {
          "internalType": "bytes32",
          "name": "",
          "type": "bytes32"
        }
      ],
      "stateMutability": "view",
      "type": "function"
    },
    {
      "inputs": [],
      "name": "MAX_LOCK_PERIOD",
      "outputs": [
        {
          "internalType": "uint256",
          "name": "",
          "type": "uint256"
        }
      ],
      "stateMutability": "view",
      "type": "function"
    },
    {
      "inputs": [],
      "name": "MIN_LOCK_PERIOD",
      "outputs": [
        {
          "internalType": "uint256",
          "name": "",
          "type": "uint256"
        }
      ],
      "stateMutability": "view",
      "type": "function"
    },
    {
      "inputs": [
        {
          "internalType": "uint256",
          "name": "_amount",
          "type": "uint256"
        }
      ],
      "name": "cancelUnstake",
      "outputs": [],
      "stateMutability": "nonpayable",
      "type": "function"
    },
    {
      "inputs": [
        {
          "internalType": "address",
          "name": "_user",
          "type": "address"
        }
      ],
      "name": "getAllUserUnstakeRequests",
      "outputs": [
        {
          "components": [
            {
              "internalType": "uint256",
              "name": "amount",
              "type": "uint256"
            },
            {
              "internalType": "uint256",
              "name": "timestamp",
              "type": "uint256"
            },
            {
              "internalType": "uint256",
              "name": "id",
              "type": "uint256"
            }
          ],
          "internalType": "struct StakingVault.UnstakeRequest[]",
          "name": "",
          "type": "tuple[]"
        }
      ],
      "stateMutability": "view",
      "type": "function"
    },
    {
      "inputs": [],
      "name": "getAvailableForWithdrawal",
      "outputs": [
        {
          "internalType": "uint256",
          "name": "",
          "type": "uint256"
        }
      ],
      "stateMutability": "view",
      "type": "function"
    },
    {
      "inputs": [
        {
          "internalType": "address",
          "name": "_user",
          "type": "address"
        }
      ],
      "name": "getAvailableUnstakeAmount",
      "outputs": [
        {
          "internalType": "uint256",
          "name": "",
          "type": "uint256"
        }
      ],
      "stateMutability": "view",
      "type": "function"
    },
    {
      "inputs": [],
      "name": "getLockPeriod",
      "outputs": [
        {
          "internalType": "uint256",
          "name": "",
          "type": "uint256"
        }
      ],
      "stateMutability": "view",
      "type": "function"
    },
    {
      "inputs": [
        {
          "internalType": "address",
          "name": "_user",
          "type": "address"
        }
      ],
      "name": "getRemainingUnstakeLockTime",
      "outputs": [
        {
          "internalType": "uint256",
          "name": "",
          "type": "uint256"
        }
      ],
      "stateMutability": "view",
      "type": "function"
    },
    {
      "inputs": [
        {
          "internalType": "bytes32",
          "name": "role",
          "type": "bytes32"
        }
      ],
      "name": "getRoleAdmin",
      "outputs": [
        {
          "internalType": "bytes32",
          "name": "",
          "type": "bytes32"
        }
      ],
      "stateMutability": "view",
      "type": "function"
    },
    {
      "inputs": [],
      "name": "getTotalStaked",
      "outputs": [
        {
          "internalType": "uint256",
          "name": "",
          "type": "uint256"
        }
      ],
      "stateMutability": "view",
      "type": "function"
    },
    {
      "inputs": [],
      "name": "getTotalUnstakeRequests",
      "outputs": [
        {
          "internalType": "uint256",
          "name": "",
          "type": "uint256"
        }
      ],
      "stateMutability": "view",
      "type": "function"
    },
    {
      "inputs": [
        {
          "internalType": "address",
          "name": "_user",
          "type": "address"
        }
      ],
      "name": "getUnstakeUnlockTimestamp",
      "outputs": [
        {
          "internalType": "uint256",
          "name": "",
          "type": "uint256"
        }
      ],
      "stateMutability": "view",
      "type": "function"
    },
    {
      "inputs": [
        {
          "internalType": "address",
          "name": "_user",
          "type": "address"
        }
      ],
      "name": "getUserStake",
      "outputs": [
        {
          "internalType": "uint256",
          "name": "",
          "type": "uint256"
        }
      ],
      "stateMutability": "view",
      "type": "function"
    },
    {
      "inputs": [
        {
          "internalType": "address",
          "name": "_user",
          "type": "address"
        }
      ],
      "name": "getUserUnstakeRequest",
      "outputs": [
        {
          "internalType": "uint256",
          "name": "",
          "type": "uint256"
        }
      ],
      "stateMutability": "view",
      "type": "function"
    },
    {
      "inputs": [
        {
          "internalType": "address",
          "name": "_user",
          "type": "address"
        },
        {
          "internalType": "uint256",
          "name": "_index",
          "type": "uint256"
        }
      ],
      "name": "getUserUnstakeRequestByIndex",
      "outputs": [
        {
          "components": [
            {
              "internalType": "uint256",
              "name": "amount",
              "type": "uint256"
            },
            {
              "internalType": "uint256",
              "name": "timestamp",
              "type": "uint256"
            },
            {
              "internalType": "uint256",
              "name": "id",
              "type": "uint256"
            }
          ],
          "internalType": "struct StakingVault.UnstakeRequest",
          "name": "",
          "type": "tuple"
        }
      ],
      "stateMutability": "view",
      "type": "function"
    },
    {
      "inputs": [
        {
          "internalType": "address",
          "name": "_user",
          "type": "address"
        }
      ],
      "name": "getUserUnstakeRequestCount",
      "outputs": [
        {
          "internalType": "uint256",
          "name": "",
          "type": "uint256"
        }
      ],
      "stateMutability": "view",
      "type": "function"
    },
    {
      "inputs": [],
      "name": "getVaultBalance",
      "outputs": [
        {
          "internalType": "uint256",
          "name": "",
          "type": "uint256"
        }
      ],
      "stateMutability": "view",
      "type": "function"
    },
    {
      "inputs": [
        {
          "internalType": "address",
          "name": "_admin",
          "type": "address"
        }
      ],
      "name": "grantAdminRole",
      "outputs": [],
      "stateMutability": "nonpayable",
      "type": "function"
    },
    {
      "inputs": [
        {
          "internalType": "bytes32",
          "name": "role",
          "type": "bytes32"
        },
        {
          "internalType": "address",
          "name": "account",
          "type": "address"
        }
      ],
      "name": "grantRole",
      "outputs": [],
      "stateMutability": "nonpayable",
      "type": "function"
    },
    {
      "inputs": [
        {
          "internalType": "bytes32",
          "name": "role",
          "type": "bytes32"
        },
        {
          "internalType": "address",
          "name": "account",
          "type": "address"
        }
      ],
      "name": "hasRole",
      "outputs": [
        {
          "internalType": "bool",
          "name": "",
          "type": "bool"
        }
      ],
      "stateMutability": "view",
      "type": "function"
    },
    {
      "inputs": [
        {
          "internalType": "address",
          "name": "_address",
          "type": "address"
        }
      ],
      "name": "isAdmin",
      "outputs": [
        {
          "internalType": "bool",
          "name": "",
          "type": "bool"
        }
      ],
      "stateMutability": "view",
      "type": "function"
    },
    {
      "inputs": [
        {
          "internalType": "address",
          "name": "_user",
          "type": "address"
        }
      ],
      "name": "isUnstakeLocked",
      "outputs": [
        {
          "internalType": "bool",
          "name": "",
          "type": "bool"
        }
      ],
      "stateMutability": "view",
      "type": "function"
    },
    {
      "inputs": [],
      "name": "lockPeriod",
      "outputs": [
        {
          "internalType": "uint256",
          "name": "",
          "type": "uint256"
        }
      ],
      "stateMutability": "view",
      "type": "function"
    },
    {
      "inputs": [],
      "name": "owner",
      "outputs": [
        {
          "internalType": "address",
          "name": "",
          "type": "address"
        }
      ],
      "stateMutability": "view",
      "type": "function"
    },
    {
      "inputs": [],
      "name": "pauseStaking",
      "outputs": [],
      "stateMutability": "nonpayable",
      "type": "function"
    },
    {
      "inputs": [],
      "name": "paused",
      "outputs": [
        {
          "internalType": "bool",
          "name": "",
          "type": "bool"
        }
      ],
      "stateMutability": "view",
      "type": "function"
    },
    {
      "inputs": [],
      "name": "renounceOwnership",
      "outputs": [],
      "stateMutability": "nonpayable",
      "type": "function"
    },
    {
      "inputs": [
        {
          "internalType": "bytes32",
          "name": "role",
          "type": "bytes32"
        },
        {
          "internalType": "address",
          "name": "account",
          "type": "address"
        }
      ],
      "name": "renounceRole",
      "outputs": [],
      "stateMutability": "nonpayable",
      "type": "function"
    },
    {
      "inputs": [
        {
          "internalType": "uint256",
          "name": "_amount",
          "type": "uint256"
        }
      ],
      "name": "requestUnstake",
      "outputs": [],
      "stateMutability": "nonpayable",
      "type": "function"
    },
    {
      "inputs": [],
      "name": "requestUnstakeAll",
      "outputs": [],
      "stateMutability": "nonpayable",
      "type": "function"
    },
    {
      "inputs": [
        {
          "internalType": "address",
          "name": "_admin",
          "type": "address"
        }
      ],
      "name": "revokeAdminRole",
      "outputs": [],
      "stateMutability": "nonpayable",
      "type": "function"
    },
    {
      "inputs": [
        {
          "internalType": "bytes32",
          "name": "role",
          "type": "bytes32"
        },
        {
          "internalType": "address",
          "name": "account",
          "type": "address"
        }
      ],
      "name": "revokeRole",
      "outputs": [],
      "stateMutability": "nonpayable",
      "type": "function"
    },
    {
      "inputs": [
        {
          "internalType": "uint256",
          "name": "_amount",
          "type": "uint256"
        }
      ],
      "name": "stake",
      "outputs": [],
      "stateMutability": "nonpayable",
      "type": "function"
    },
    {
      "inputs": [],
      "name": "stakingToken",
      "outputs": [
        {
          "internalType": "contract IERC20",
          "name": "",
          "type": "address"
        }
      ],
      "stateMutability": "view",
      "type": "function"
    },
    {
      "inputs": [
        {
          "internalType": "bytes4",
          "name": "interfaceId",
          "type": "bytes4"
        }
      ],
      "name": "supportsInterface",
      "outputs": [
        {
          "internalType": "bool",
          "name": "",
          "type": "bool"
        }
      ],
      "stateMutability": "view",
      "type": "function"
    },
    {
      "inputs": [],
      "name": "totalStaked",
      "outputs": [
        {
          "internalType": "uint256",
          "name": "",
          "type": "uint256"
        }
      ],
      "stateMutability": "view",
      "type": "function"
    },
    {
      "inputs": [],
      "name": "totalUnstakeRequests",
      "outputs": [
        {
          "internalType": "uint256",
          "name": "",
          "type": "uint256"
        }
      ],
      "stateMutability": "view",
      "type": "function"
    },
    {
      "inputs": [
        {
          "internalType": "address",
          "name": "newOwner",
          "type": "address"
        }
      ],
      "name": "transferOwnership",
      "outputs": [],
      "stateMutability": "nonpayable",
      "type": "function"
    },
    {
      "inputs": [],
      "name": "unpauseStaking",
      "outputs": [],
      "stateMutability": "nonpayable",
      "type": "function"
    },
    {
      "inputs": [
        {
          "internalType": "address",
          "name": "",
          "type": "address"
        },
        {
          "internalType": "uint256",
          "name": "",
          "type": "uint256"
        }
      ],
      "name": "unstakeRequests",
      "outputs": [
        {
          "internalType": "uint256",
          "name": "amount",
          "type": "uint256"
        },
        {
          "internalType": "uint256",
          "name": "timestamp",
          "type": "uint256"
        },
        {
          "internalType": "uint256",
          "name": "id",
          "type": "uint256"
        }
      ],
      "stateMutability": "view",
      "type": "function"
    },
    {
      "inputs": [
        {
          "internalType": "uint256",
          "name": "_newLockPeriod",
          "type": "uint256"
        }
      ],
      "name": "updateLockPeriod",
      "outputs": [],
      "stateMutability": "nonpayable",
      "type": "function"
    },
    {
      "inputs": [
        {
          "internalType": "address",
          "name": "",
          "type": "address"
        }
      ],
      "name": "userStakes",
      "outputs": [
        {
          "internalType": "uint256",
          "name": "",
          "type": "uint256"
        }
      ],
      "stateMutability": "view",
      "type": "function"
    },
    {
      "inputs": [
        {
          "internalType": "uint256",
          "name": "_amount",
          "type": "uint256"
        },
        {
          "internalType": "address",
          "name": "_to",
          "type": "address"
        }
      ],
      "name": "withdraw",
      "outputs": [],
      "stateMutability": "nonpayable",
      "type": "function"
    },
    {
      "inputs": [],
      "name": "withdrawAllUnstake",
      "outputs": [],
      "stateMutability": "nonpayable",
      "type": "function"
    },
    {
      "inputs": [
        {
          "internalType": "uint256",
          "name": "_amount",
          "type": "uint256"
        }
      ],
      "name": "withdrawUnstake",
      "outputs": [],
      "stateMutability": "nonpayable",
      "type": "function"
    }
  ],
  "transactionHash": "0x324d056431de70459cc4000e0bb8a388fd9b17d91831e8b0cc8ca4fbd133758e",
  "args": [
    "0x363E6Ba86D5a723C0C7d7fD9B360091293bc0019"
  ],
  "numDeployments": 1,
  "solcInputHash": "6c04fa92cb71cfdf705b5afb0bd5ba7b",
  "bytecode": "0x60a06040523480156200001157600080fd5b50604051620028ab380380620028ab8339810160408190526200003491620001c3565b6200003f33620000d0565b6001805460ff60a01b191681556002556001600160a01b038116620000775760405163077d3c6b60e11b815260040160405180910390fd5b6001600160a01b0381166080526212750060075560016008556200009d60003362000122565b620000c97fa49807205ce4d355092ef5a8a18f56e8913cf4a201fbe287825b095693c217753362000122565b50620001f5565b600180546001600160a01b038381166001600160a01b0319831681179093556040519116919082907f8be0079c531659141344cd1fd0a4f28419497f9722a3daafe3b4186f6b6457e090600090a35050565b6000828152602081815260408083206001600160a01b038516845290915290205460ff16620001bf576000828152602081815260408083206001600160a01b03851684529091529020805460ff191660011790556200017e3390565b6001600160a01b0316816001600160a01b0316837f2f8788117e7eff1d82e926ec794901d17c78024a50270940304540a733656f0d60405160405180910390a45b5050565b600060208284031215620001d657600080fd5b81516001600160a01b0381168114620001ee57600080fd5b9392505050565b60805161267762000234600039600081816103a80152818161063001528181610d7101528181611277015281816115e2015261192101526126776000f3fe608060405234801561001057600080fd5b50600436106102245760003560e01c8062f714ce1461022957806301ffc9a71461023e5780630917e776146102665780632309572114610278578063248a9ca31461028b57806324d7806c1461029e5780632b187b2b146102b15780632f2ff15d146102c457806336568abe146102d7578063385757e9146102ea578063385dc3df146102f2578063399d8294146102fc5780633c39f2d0146103045780633fd8b02f146103175780634bb0ad72146103205780634d32f487146103405780635740ca68146103495780635959380a146103695780635c975abb1461037157806366442a0614610379578063715018a61461039b57806372f702f3146103a357806375b238fc146103d7578063817b1cd2146103ec5780638da5cb5b146103f55780638da7ad23146103fd57806391d148541461041d57806391db7b0d1461043057806393f4bcde146104435780639a19c7b01461044b578063a217fddf1461045e578063a694fc3a14610466578063ac96469714610479578063bbadc93a1461048c578063c26dc516146104b5578063c44633e9146104c8578063c634b78e146104d0578063c87117ee146104e3578063d547741f146104f6578063d59094b714610509578063e1f5dfef1461051c578063e43db1931461052f578063ed12e8ef14610537578063f2fde38b1461053f578063f50154d714610552578063f55401621461057b578063f999c50614610586575b600080fd5b61023c61023736600461227e565b61058e565b005b61025161024c3660046122aa565b6106a7565b60405190151581526020015b60405180910390f35b6005545b60405190815260200161025d565b61023c6102863660046122d4565b6106de565b61026a6102993660046122d4565b610852565b6102516102ac3660046122ed565b610867565b61023c6102bf3660046122d4565b610881565b61023c6102d236600461227e565b610ac3565b61023c6102e536600461227e565b610adf565b61023c610b62565b61026a6201518081565b60065461026a565b6102516103123660046122ed565b610da5565b61026a60075481565b61033361032e3660046122ed565b610e1c565b60405161025d9190612321565b61026a60065481565b61035c61035736600461236f565b610eaf565b60405161025d9190612399565b61023c610f99565b6102516110d7565b61038c61038736600461236f565b6110e7565b60405161025d939291906123a7565b61023c611129565b6103ca7f000000000000000000000000000000000000000000000000000000000000000081565b60405161025d91906123bd565b61026a60008051602061260283398151915281565b61026a60055481565b6103ca61113b565b61026a61040b3660046122ed565b60036020526000908152604090205481565b61025161042b36600461227e565b61114a565b61023c61043e3660046122d4565b611173565b61023c611209565b61023c6104593660046122ed565b611219565b61026a600081565b61023c6104743660046122d4565b611239565b61023c6104873660046122d4565b611322565b61026a61049a3660046122ed565b6001600160a01b031660009081526003602052604090205490565b61026a6104c33660046122ed565b611615565b61026a6116a9565b61023c6104de3660046122ed565b6116e9565b61026a6104f13660046122ed565b611730565b61023c61050436600461227e565b6117ad565b61026a6105173660046122ed565b6117c9565b61026a61052a3660046122ed565b611838565b60075461026a565b61026a611907565b61023c61054d3660046122ed565b61199c565b61026a6105603660046122ed565b6001600160a01b031660009081526004602052604090205490565b61026a6301e1338081565b61023c611a26565b6000805160206126028339815191526105a681611a36565b6105ae611a40565b6001600160a01b0382166105d55760405163077d3c6b60e11b815260040160405180910390fd5b826000036105f6576040516302537e9560e41b815260040160405180910390fd5b60006106006116a9565b90508381101561062357604051632715ead960e21b815260040160405180910390fd5b6106576001600160a01b037f0000000000000000000000000000000000000000000000000000000000000000168486611a97565b6040518481526001600160a01b0384169033907f2717ead6b9200dd235aad468c9809ea400fe33ac69b5bfaa6d3e90fc922b63989060200160405180910390a3506106a26001600255565b505050565b60006001600160e01b03198216637965db0b60e01b14806106d857506301ffc9a760e01b6001600160e01b03198316145b92915050565b6106e6611a40565b80600003610707576040516302537e9560e41b815260040160405180910390fd5b3360009081526003602052604090205481111561073757604051631dea2f7560e31b815260040160405180910390fd5b33600090815260036020526040812080548392906107569084906123e7565b92505081905550806005600082825461076f91906123e7565b909155505060408051606081018252828152426020820152600880546000938301918461079b836123fa565b909155509052336000908152600460209081526040808320805460018181018355918552838520865160039092020190815592850151908301558301516002909101556006805492935084929091906107f5908490612413565b909155505060075460009061080a9042612413565b9050336001600160a01b03166000805160206126228339815191528360400151858460405161083b939291906123a7565b60405180910390a2505061084f6001600255565b50565b60009081526020819052604090206001015490565b60006106d86000805160206126028339815191528361114a565b610889611a40565b806000036108aa576040516302537e9560e41b815260040160405180910390fd5b3360009081526004602052604081205490036108d9576040516374fd081960e01b815260040160405180910390fd5b8060005b33600090815260046020526040902054158015906108fb5750600082115b15610a43573360009081526004602052604081205461091c906001906123e7565b336000908152600460205260408120805492935090918390811061094257610942612426565b906000526020600020906003020190506000848260000154116109d857508054600282015460405133916000805160206125c2833981519152916109889190859061243c565b60405180910390a23360009081526004602052604090208054806109ae576109ae61244a565b60008281526020812060036000199093019283020181815560018101829055600201559055610a23565b849050808260000160008282546109ef91906123e7565b9091555050600282015460405133916000805160206125c283398151915291610a1a9190859061243c565b60405180910390a25b610a2d81866123e7565b9450610a398185612413565b93505050506108dd565b8115610a6257604051633de6b88560e11b815260040160405180910390fd5b8060066000828254610a7491906123e7565b90915550503360009081526003602052604081208054839290610a98908490612413565b925050819055508060056000828254610ab19190612413565b909155505060016002555061084f9050565b610acc82610852565b610ad581611a36565b6106a28383611afa565b6001600160a01b0381163314610b545760405162461bcd60e51b815260206004820152602f60248201527f416363657373436f6e74726f6c3a2063616e206f6e6c792072656e6f756e636560448201526e103937b632b9903337b91039b2b63360891b60648201526084015b60405180910390fd5b610b5e8282611b7e565b5050565b610b6a611a40565b336000908152600460205260408120549003610b99576040516374fd081960e01b815260040160405180910390fd5b6000805b33600090815260046020526040902054811015610d2a57336000908152600460205260408120805483908110610bd557610bd5612426565b906000526020600020906003020190506007548160010154610bf79190612413565b4210610d1e578054610c099084612413565b6002820154825460405192955033926000805160206125e283398151915292610c3392909161243c565b60405180910390a23360009081526004602052604090208054610c58906001906123e7565b81548110610c6857610c68612426565b906000526020600020906003020160046000336001600160a01b03166001600160a01b031681526020019081526020016000208381548110610cac57610cac612426565b600091825260208083208454600390930201918255600180850154908301556002938401549390910192909255338152600490915260409020805480610cf457610cf461244a565b60008281526020812060036000199093019283020181815560018101829055600201559055610d24565b50610d2a565b50610b9d565b5080600003610d4c57604051639b935c3360e01b815260040160405180910390fd5b8060066000828254610d5e91906123e7565b90915550610d9890506001600160a01b037f0000000000000000000000000000000000000000000000000000000000000000163383611a97565b50610da36001600255565b565b6001600160a01b0381166000908152600460205260408120548103610dcc57506000919050565b6007546001600160a01b03831660009081526004602052604081208054909190610df857610df8612426565b906000526020600020906003020160010154610e149190612413565b421092915050565b6001600160a01b0381166000908152600460209081526040808320805482518185028101850190935280835260609492939192909184015b82821015610ea45783829060005260206000209060030201604051806060016040529081600082015481526020016001820154815260200160028201548152505081526020019060010190610e54565b505050509050919050565b610ed360405180606001604052806000815260200160008152602001600081525090565b6001600160a01b0383166000908152600460205260409020548210610f305760405162461bcd60e51b8152602060048201526013602482015272496e646578206f7574206f6620626f756e647360681b6044820152606401610b4b565b6001600160a01b0383166000908152600460205260409020805483908110610f5a57610f5a612426565b90600052602060002090600302016040518060600160405290816000820154815260200160018201548152602001600282015481525050905092915050565b610fa1611a40565b3360009081526003602052604081205490819003610fd257604051631dea2f7560e31b815260040160405180910390fd5b33600090815260036020526040812081905560058054839290610ff69084906123e7565b9091555050604080516060810182528281524260208201526008805460009383019184611022836123fa565b9091555090523360009081526004602090815260408083208054600181810183559185528385208651600390920201908155928501519083015583015160029091015560068054929350849290919061107c908490612413565b90915550506007546000906110919042612413565b9050336001600160a01b0316600080516020612622833981519152836040015185846040516110c2939291906123a7565b60405180910390a2505050610da36001600255565b600154600160a01b900460ff1690565b6004602052816000526040600020818154811061110357600080fd5b600091825260209091206003909102018054600182015460029092015490935090915083565b611131611be3565b610da36000611c42565b6001546001600160a01b031690565b6000918252602082815260408084206001600160a01b0393909316845291905290205460ff1690565b60008051602061260283398151915261118b81611a36565b6201518082108061119f57506301e1338082115b156111bd57604051638d212e0d60e01b815260040160405180910390fd5b60078054908390556040805182815260208101859052338183015290517f2043fa5a49797f7a1c2629f68eab59ee10a5c456255ac94bd0b78fbc24219daf9181900360600190a1505050565b611211611be3565b610da3611c94565b611221611be3565b61084f60008051602061260283398151915282611b7e565b611241611ce3565b611249611a40565b8060000361126a576040516302537e9560e41b815260040160405180910390fd5b61129f6001600160a01b037f000000000000000000000000000000000000000000000000000000000000000016333084611d2b565b33600090815260036020526040812080548392906112be908490612413565b9250508190555080600560008282546112d79190612413565b909155505060405133907f1449c6dd7851abc30abf37f57715f492010519147cc2652fbc38202c18a6ee9090611310908490429061243c565b60405180910390a261084f6001600255565b61132a611a40565b8060000361134b576040516302537e9560e41b815260040160405180910390fd5b33600090815260046020526040812054900361137a576040516374fd081960e01b815260040160405180910390fd5b806000805b336000908152600460205260409020548110801561139d5750600083115b1561159d573360009081526004602052604081208054839081106113c3576113c3612426565b9060005260206000209060030201905060075481600101546113e59190612413565b42101561140557604051639b935c3360e01b815260040160405180910390fd5b60008482600001541161152657508054600282015460405133916000805160206125e28339815191529161143b9190859061243c565b60405180910390a23360009081526004602052604090208054611460906001906123e7565b8154811061147057611470612426565b906000526020600020906003020160046000336001600160a01b03166001600160a01b0316815260200190815260200160002084815481106114b4576114b4612426565b6000918252602080832084546003909302019182556001808501549083015560029384015493909101929092553381526004909152604090208054806114fc576114fc61244a565b6000828152602081206003600019909301928302018181556001810182905560020155905561157e565b8490508082600001600082825461153d91906123e7565b9091555050600282015460405133916000805160206125e2833981519152916115689190859061243c565b60405180910390a28261157a816123fa565b9350505b61158881866123e7565b94506115948185612413565b9350505061137f565b5081156115bd57604051633de6b88560e11b815260040160405180910390fd5b80600660008282546115cf91906123e7565b9091555061160990506001600160a01b037f0000000000000000000000000000000000000000000000000000000000000000163383611a97565b505061084f6001600255565b6001600160a01b038116600090815260046020526040812054810361163c57506000919050565b6007546001600160a01b03831660009081526004602052604081208054919291839061166a5761166a612426565b9060005260206000209060030201600101546116869190612413565b90508042106116985750600092915050565b6116a242826123e7565b9392505050565b6000806116b4611907565b905060006006546005546116c89190612413565b90508082116116d85760006116e2565b6116e281836123e7565b9250505090565b6116f1611be3565b6001600160a01b0381166117185760405163077d3c6b60e11b815260040160405180910390fd5b61084f60008051602061260283398151915282611afa565b600080805b6001600160a01b0384166000908152600460205260409020548110156117a6576001600160a01b038416600090815260046020526040902080548290811061177f5761177f612426565b9060005260206000209060030201600001548261179c9190612413565b9150600101611735565b5092915050565b6117b682610852565b6117bf81611a36565b6106a28383611b7e565b6001600160a01b03811660009081526004602052604081205481036117f057506000919050565b6007546001600160a01b0383166000908152600460205260408120805490919061181c5761181c612426565b9060005260206000209060030201600101546106d89190612413565b600080805b6001600160a01b0384166000908152600460205260409020548110156117a6576007546001600160a01b038516600090815260046020526040902080548390811061188a5761188a612426565b9060005260206000209060030201600101546118a69190612413565b42106118fa576001600160a01b03841660009081526004602052604090208054829081106118d6576118d6612426565b906000526020600020906003020160000154826118f39190612413565b91506118ff565b6117a6565b60010161183d565b6040516370a0823160e01b81526000906001600160a01b037f000000000000000000000000000000000000000000000000000000000000000016906370a08231906119569030906004016123bd565b602060405180830381865afa158015611973573d6000803e3d6000fd5b505050506040513d601f19601f820116820180604052508101906119979190612460565b905090565b6119a4611be3565b6001600160a01b0381166119cb5760405163077d3c6b60e11b815260040160405180910390fd5b60006119d561113b565b90506119e2600082611b7e565b6119fa60008051602061260283398151915282611b7e565b611a05600083611afa565b611a1d60008051602061260283398151915283611afa565b610b5e82611c42565b611a2e611be3565b610da3611d69565b61084f8133611dac565b6002805403611a915760405162461bcd60e51b815260206004820152601f60248201527f5265656e7472616e637947756172643a207265656e7472616e742063616c6c006044820152606401610b4b565b60028055565b6040516001600160a01b0383166024820152604481018290526106a290849063a9059cbb60e01b906064015b60408051601f198184030181529190526020810180516001600160e01b03166001600160e01b031990931692909217909152611e05565b611b04828261114a565b610b5e576000828152602081815260408083206001600160a01b03851684529091529020805460ff19166001179055611b3a3390565b6001600160a01b0316816001600160a01b0316837f2f8788117e7eff1d82e926ec794901d17c78024a50270940304540a733656f0d60405160405180910390a45050565b611b88828261114a565b15610b5e576000828152602081815260408083206001600160a01b0385168085529252808320805460ff1916905551339285917ff6391f5c32d9c69d2a47ea670b442974b53935d1edc7fd64eb21e047a839171b9190a45050565b33611bec61113b565b6001600160a01b031614610da35760405162461bcd60e51b815260206004820181905260248201527f4f776e61626c653a2063616c6c6572206973206e6f7420746865206f776e65726044820152606401610b4b565b600180546001600160a01b038381166001600160a01b0319831681179093556040519116919082907f8be0079c531659141344cd1fd0a4f28419497f9722a3daafe3b4186f6b6457e090600090a35050565b611c9c611eda565b6001805460ff60a01b191690557f5db9ee0a495bf2e6ff9c91a7834c1ba4fdd244a5e8aa4e537bd38aeae4b073aa335b604051611cd991906123bd565b60405180910390a1565b611ceb6110d7565b15610da35760405162461bcd60e51b815260206004820152601060248201526f14185d5cd8589b194e881c185d5cd95960821b6044820152606401610b4b565b6040516001600160a01b0380851660248301528316604482015260648101829052611d639085906323b872dd60e01b90608401611ac3565b50505050565b611d71611ce3565b6001805460ff60a01b1916600160a01b1790557f62e78cea01bee320cd4e420270b5ea74000d11b0c9f74754ebdbfc544b05a258611ccc3390565b611db6828261114a565b610b5e57611dc381611f25565b611dce836020611f37565b604051602001611ddf92919061249d565b60408051601f198184030181529082905262461bcd60e51b8252610b4b9160040161250c565b6000611e5a826040518060400160405280602081526020017f5361666545524332303a206c6f772d6c6576656c2063616c6c206661696c6564815250856001600160a01b03166120d29092919063ffffffff16565b9050805160001480611e7b575080806020019051810190611e7b919061253f565b6106a25760405162461bcd60e51b815260206004820152602a60248201527f5361666545524332303a204552433230206f7065726174696f6e20646964206e6044820152691bdd081cdd58d8d9595960b21b6064820152608401610b4b565b611ee26110d7565b610da35760405162461bcd60e51b815260206004820152601460248201527314185d5cd8589b194e881b9bdd081c185d5cd95960621b6044820152606401610b4b565b60606106d86001600160a01b03831660145b60606000611f46836002612561565b611f51906002612413565b6001600160401b03811115611f6857611f68612578565b6040519080825280601f01601f191660200182016040528015611f92576020820181803683370190505b509050600360fc1b81600081518110611fad57611fad612426565b60200101906001600160f81b031916908160001a905350600f60fb1b81600181518110611fdc57611fdc612426565b60200101906001600160f81b031916908160001a9053506000612000846002612561565b61200b906001612413565b90505b6001811115612083576f181899199a1a9b1b9c1cb0b131b232b360811b85600f166010811061203f5761203f612426565b1a60f81b82828151811061205557612055612426565b60200101906001600160f81b031916908160001a90535060049490941c9361207c8161258e565b905061200e565b5083156116a25760405162461bcd60e51b815260206004820181905260248201527f537472696e67733a20686578206c656e67746820696e73756666696369656e746044820152606401610b4b565b60606120e184846000856120e9565b949350505050565b60608247101561214a5760405162461bcd60e51b815260206004820152602660248201527f416464726573733a20696e73756666696369656e742062616c616e636520666f6044820152651c8818d85b1b60d21b6064820152608401610b4b565b600080866001600160a01b0316858760405161216691906125a5565b60006040518083038185875af1925050503d80600081146121a3576040519150601f19603f3d011682016040523d82523d6000602084013e6121a8565b606091505b50915091506121b9878383876121c4565b979650505050505050565b6060831561223357825160000361222c576001600160a01b0385163b61222c5760405162461bcd60e51b815260206004820152601d60248201527f416464726573733a2063616c6c20746f206e6f6e2d636f6e74726163740000006044820152606401610b4b565b50816120e1565b6120e183838151156122485781518083602001fd5b8060405162461bcd60e51b8152600401610b4b919061250c565b80356001600160a01b038116811461227957600080fd5b919050565b6000806040838503121561229157600080fd5b823591506122a160208401612262565b90509250929050565b6000602082840312156122bc57600080fd5b81356001600160e01b0319811681146116a257600080fd5b6000602082840312156122e657600080fd5b5035919050565b6000602082840312156122ff57600080fd5b6116a282612262565b8051825260208082015190830152604090810151910152565b6020808252825182820181905260009190848201906040850190845b8181101561236357612350838551612308565b928401926060929092019160010161233d565b50909695505050505050565b6000806040838503121561238257600080fd5b61238b83612262565b946020939093013593505050565b606081016106d88284612308565b9283526020830191909152604082015260600190565b6001600160a01b0391909116815260200190565b634e487b7160e01b600052601160045260246000fd5b818103818111156106d8576106d86123d1565b60006001820161240c5761240c6123d1565b5060010190565b808201808211156106d8576106d86123d1565b634e487b7160e01b600052603260045260246000fd5b918252602082015260400190565b634e487b7160e01b600052603160045260246000fd5b60006020828403121561247257600080fd5b5051919050565b60005b8381101561249457818101518382015260200161247c565b50506000910152565b76020b1b1b2b9b9a1b7b73a3937b61d1030b1b1b7bab73a1604d1b8152600083516124cf816017850160208801612479565b7001034b99036b4b9b9b4b733903937b6329607d1b6017918401918201528351612500816028840160208801612479565b01602801949350505050565b602081526000825180602084015261252b816040850160208701612479565b601f01601f19169190910160400192915050565b60006020828403121561255157600080fd5b815180151581146116a257600080fd5b80820281158282048414176106d8576106d86123d1565b634e487b7160e01b600052604160045260246000fd5b60008161259d5761259d6123d1565b506000190190565b600082516125b7818460208701612479565b919091019291505056fe61c341979edd8db4659788ba41eb8649b8a01a09e3d02ca5daf4fcc1635e337874ceb61701d382a6998d20d12f85b511b4ad9739d4e58fd9e0ef99068d6c7a72a49807205ce4d355092ef5a8a18f56e8913cf4a201fbe287825b095693c217756930caaa0f0843978bf16992d58b9fd54913ce2e45b8acdd34f5b44f95419db2a26469706673582212202bedffd0988eed714158bcc415f5e2e2590b49eeb580fb3e7ae3e6ff766ff60a64736f6c63430008180033",
  "devdoc": {
    "events": {
      "Paused(address)": {
        "details": "Emitted when the pause is triggered by `account`."
      },
      "RoleAdminChanged(bytes32,bytes32,bytes32)": {
        "details": "Emitted when `newAdminRole` is set as ``role``'s admin role, replacing `previousAdminRole` `DEFAULT_ADMIN_ROLE` is the starting admin for all roles, despite {RoleAdminChanged} not being emitted signaling this. _Available since v3.1._"
      },
      "RoleGranted(bytes32,address,address)": {
        "details": "Emitted when `account` is granted `role`. `sender` is the account that originated the contract call, an admin role bearer except when using {AccessControl-_setupRole}."
      },
      "RoleRevoked(bytes32,address,address)": {
        "details": "Emitted when `account` is revoked `role`. `sender` is the account that originated the contract call:   - if using `revokeRole`, it is the admin role bearer   - if using `renounceRole`, it is the role bearer (i.e. `account`)"
      },
      "Unpaused(address)": {
        "details": "Emitted when the pause is lifted by `account`."
      }
    },
    "kind": "dev",
    "methods": {
      "cancelUnstake(uint256)": {
        "custom:effects": "Moves tokens back from newest unstake requests to staked balance",
        "custom:requirements": "User must have sufficient unstake requests",
        "params": {
          "_amount": "The amount to cancel from unstake requests"
        }
      },
      "getAllUserUnstakeRequests(address)": {
        "params": {
          "_user": "The address of the user"
        },
        "returns": {
          "_0": "Array of all unstake requests"
        }
      },
      "getAvailableUnstakeAmount(address)": {
        "params": {
          "_user": "The address of the user"
        },
        "returns": {
          "_0": "The total amount available for immediate withdrawal"
        }
      },
      "getLockPeriod()": {
        "returns": {
          "_0": "The current lock period in seconds"
        }
      },
      "getRemainingUnstakeLockTime(address)": {
        "params": {
          "_user": "The address of the user"
        },
        "returns": {
          "_0": "The remaining lock time in seconds (0 if unlocked)"
        }
      },
      "getRoleAdmin(bytes32)": {
        "details": "Returns the admin role that controls `role`. See {grantRole} and {revokeRole}. To change a role's admin, use {_setRoleAdmin}."
      },
      "getTotalUnstakeRequests()": {
        "returns": {
          "_0": "The total amount of tokens waiting for withdrawal"
        }
      },
      "getUnstakeUnlockTimestamp(address)": {
        "params": {
          "_user": "The address of the user"
        },
        "returns": {
          "_0": "The timestamp when the oldest unstake request will be available for withdrawal"
        }
      },
      "getUserUnstakeRequest(address)": {
        "params": {
          "_user": "The address of the user"
        },
        "returns": {
          "_0": "The total amount of tokens in all unstake requests"
        }
      },
      "getUserUnstakeRequestByIndex(address,uint256)": {
        "params": {
          "_index": "The index of the unstake request",
          "_user": "The address of the user"
        },
        "returns": {
          "_0": "The unstake request details"
        }
      },
      "getUserUnstakeRequestCount(address)": {
        "params": {
          "_user": "The address of the user"
        },
        "returns": {
          "_0": "The number of unstake requests in queue"
        }
      },
      "grantAdminRole(address)": {
        "custom:security": "Admins can withdraw excess funds but not user staked tokens",
        "details": "Only the owner can call this function. Admin will have withdrawal privileges.",
        "params": {
          "_admin": "The address to be granted admin privileges"
        }
      },
      "grantRole(bytes32,address)": {
        "details": "Grants `role` to `account`. If `account` had not been already granted `role`, emits a {RoleGranted} event. Requirements: - the caller must have ``role``'s admin role. May emit a {RoleGranted} event."
      },
      "hasRole(bytes32,address)": {
        "details": "Returns `true` if `account` has been granted `role`."
      },
      "isAdmin(address)": {
        "params": {
          "_address": "The address to check"
        },
        "returns": {
          "_0": "Whether the address has admin role"
        }
      },
      "isUnstakeLocked(address)": {
        "params": {
          "_user": "The address of the user"
        },
        "returns": {
          "_0": "True if the oldest unstake request is locked, false otherwise"
        }
      },
      "owner()": {
        "details": "Returns the address of the current owner."
      },
      "pauseStaking()": {
        "custom:security": "Emergency function to halt new staking during incidents",
        "details": "Only the owner can pause staking. Affects new stakes only."
      },
      "paused()": {
        "details": "Returns true if the contract is paused, and false otherwise."
      },
      "renounceOwnership()": {
        "details": "Leaves the contract without owner. It will not be possible to call `onlyOwner` functions. Can only be called by the current owner. NOTE: Renouncing ownership will leave the contract without an owner, thereby disabling any functionality that is only available to the owner."
      },
      "renounceRole(bytes32,address)": {
        "details": "Revokes `role` from the calling account. Roles are often managed via {grantRole} and {revokeRole}: this function's purpose is to provide a mechanism for accounts to lose their privileges if they are compromised (such as when a trusted device is misplaced). If the calling account had been revoked `role`, emits a {RoleRevoked} event. Requirements: - the caller must be `account`. May emit a {RoleRevoked} event."
      },
      "requestUnstake(uint256)": {
        "custom:effects": "Creates unstake request in FIFO queue with withdrawal delay",
        "custom:requirements": "User must have sufficient staked balance",
        "details": "Creates an unstake request that will be available for withdrawal after lockPeriod",
        "params": {
          "_amount": "The amount of tokens to request for unstaking"
        }
      },
      "requestUnstakeAll()": {
        "custom:effects": "Moves entire stake to unstake request queue with withdrawal delay",
        "custom:requirements": "User must have a non-zero stake balance",
        "details": "Creates an unstake request for the entire stake balance"
      },
      "revokeAdminRole(address)": {
        "details": "Only the owner can call this function",
        "params": {
          "_admin": "The address to have admin privileges revoked"
        }
      },
      "revokeRole(bytes32,address)": {
        "details": "Revokes `role` from `account`. If `account` had been granted `role`, emits a {RoleRevoked} event. Requirements: - the caller must have ``role``'s admin role. May emit a {RoleRevoked} event."
      },
      "stake(uint256)": {
        "custom:effects": "Increases user's stake balance and total staked amount",
        "custom:requirements": "Staking must not be paused and amount must be > 0",
        "details": "Transfers tokens from user to contract and updates staking balances",
        "params": {
          "_amount": "The amount of tokens to stake"
        }
      },
      "supportsInterface(bytes4)": {
        "details": "See {IERC165-supportsInterface}."
      },
      "transferOwnership(address)": {
        "params": {
          "newOwner": "The address of the new owner"
        }
      },
      "unpauseStaking()": {
        "details": "Only the owner can unpause staking."
      },
      "updateLockPeriod(uint256)": {
        "custom:bounds": "Lock period must be between MIN_LOCK_PERIOD and MAX_LOCK_PERIOD",
        "custom:security": "Only affects future stakes, existing stakes keep their original lock period",
        "details": "Only owner or admin can call this function. Does not affect existing stakes.",
        "params": {
          "_newLockPeriod": "The new lock period in seconds"
        }
      },
      "withdraw(uint256,address)": {
        "custom:effects": "Transfers excess vault tokens without affecting user balances",
        "custom:security": "Only allows withdrawal of excess funds beyond user stakes",
        "details": "Only owner or admin can withdraw. Cannot withdraw user staked tokens.",
        "params": {
          "_amount": "The amount of excess tokens to withdraw",
          "_to": "The address to receive the withdrawn tokens"
        }
      },
      "withdrawAllUnstake()": {
        "custom:effects": "Transfers all available tokens to user and removes processed requests",
        "custom:requirements": "User must have unlocked unstake requests",
        "details": "Processes all unlocked unstake requests in FIFO order"
      },
      "withdrawUnstake(uint256)": {
        "custom:effects": "Transfers tokens to user and removes processed requests from queue",
        "custom:requirements": "User must have sufficient unlocked unstake requests",
        "details": "Processes oldest unstake requests that have passed the lock period",
        "params": {
          "_amount": "The amount of tokens to withdraw from unstake requests"
        }
      }
    },
    "version": 1
  },
  "userdoc": {
    "kind": "user",
    "methods": {
      "cancelUnstake(uint256)": {
        "notice": "Cancels unstake requests and returns tokens to staked balance (LIFO)"
      },
      "getAllUserUnstakeRequests(address)": {
        "notice": "Gets all unstake requests for a user"
      },
      "getAvailableUnstakeAmount(address)": {
        "notice": "Gets the total available amount for withdrawal (unlocked requests)"
      },
      "getLockPeriod()": {
        "notice": "Gets the current lock period"
      },
      "getRemainingUnstakeLockTime(address)": {
        "notice": "Gets the remaining lock time for the oldest unstake request"
      },
      "getTotalUnstakeRequests()": {
        "notice": "Gets the total amount of tokens in unstake requests"
      },
      "getUnstakeUnlockTimestamp(address)": {
        "notice": "Gets the unlock timestamp for the oldest unstake request"
      },
      "getUserUnstakeRequest(address)": {
        "notice": "Gets the user's total unstake request amount"
      },
      "getUserUnstakeRequestByIndex(address,uint256)": {
        "notice": "Gets a specific unstake request by index"
      },
      "getUserUnstakeRequestCount(address)": {
        "notice": "Gets the number of unstake requests for a user"
      },
      "grantAdminRole(address)": {
        "notice": "Grants admin role to an address"
      },
      "isAdmin(address)": {
        "notice": "Checks if an address has admin role"
      },
      "isUnstakeLocked(address)": {
        "notice": "Checks if the oldest unstake request is currently locked"
      },
      "pauseStaking()": {
        "notice": "Pauses staking functionality"
      },
      "requestUnstake(uint256)": {
        "notice": "Requests to unstake a specific amount of tokens"
      },
      "requestUnstakeAll()": {
        "notice": "Requests to unstake all of the user's staked tokens"
      },
      "revokeAdminRole(address)": {
        "notice": "Revokes admin role from an address"
      },
      "stake(uint256)": {
        "notice": "Stakes tokens into the vault"
      },
      "transferOwnership(address)": {
        "notice": "Transfers ownership and admin role to a new owner"
      },
      "unpauseStaking()": {
        "notice": "Unpauses staking functionality"
      },
      "updateLockPeriod(uint256)": {
        "notice": "Updates the lock period for new stakes"
      },
      "withdraw(uint256,address)": {
        "notice": "Withdraws excess tokens from the vault (not user staked funds)"
      },
      "withdrawAllUnstake()": {
        "notice": "Withdraws all available tokens from completed unstake requests"
      },
      "withdrawUnstake(uint256)": {
        "notice": "Withdraws tokens from completed unstake requests (FIFO)"
      }
    },
    "version": 1
  },
  "storageLayout": {
    "storage": [
      {
        "astId": 24,
        "contract": "contracts/staking/StakingVault.sol:StakingVault",
        "label": "_roles",
        "offset": 0,
        "slot": "0",
        "type": "t_mapping(t_bytes32,t_struct(RoleData)19_storage)"
      },
      {
        "astId": 396,
        "contract": "contracts/staking/StakingVault.sol:StakingVault",
        "label": "_owner",
        "offset": 0,
        "slot": "1",
        "type": "t_address"
      },
      {
        "astId": 519,
        "contract": "contracts/staking/StakingVault.sol:StakingVault",
        "label": "_paused",
        "offset": 20,
        "slot": "1",
        "type": "t_bool"
      },
      {
        "astId": 620,
        "contract": "contracts/staking/StakingVault.sol:StakingVault",
        "label": "_status",
        "offset": 0,
        "slot": "2",
        "type": "t_uint256"
      },
      {
        "astId": 2807,
        "contract": "contracts/staking/StakingVault.sol:StakingVault",
        "label": "userStakes",
        "offset": 0,
        "slot": "3",
        "type": "t_mapping(t_address,t_uint256)"
      },
      {
        "astId": 2813,
        "contract": "contracts/staking/StakingVault.sol:StakingVault",
        "label": "unstakeRequests",
        "offset": 0,
        "slot": "4",
        "type": "t_mapping(t_address,t_array(t_struct(UnstakeRequest)2800_storage)dyn_storage)"
      },
      {
        "astId": 2815,
        "contract": "contracts/staking/StakingVault.sol:StakingVault",
        "label": "totalStaked",
        "offset": 0,
        "slot": "5",
        "type": "t_uint256"
      },
      {
        "astId": 2817,
        "contract": "contracts/staking/StakingVault.sol:StakingVault",
        "label": "totalUnstakeRequests",
        "offset": 0,
        "slot": "6",
        "type": "t_uint256"
      },
      {
        "astId": 2819,
        "contract": "contracts/staking/StakingVault.sol:StakingVault",
        "label": "lockPeriod",
        "offset": 0,
        "slot": "7",
        "type": "t_uint256"
      },
      {
        "astId": 2821,
        "contract": "contracts/staking/StakingVault.sol:StakingVault",
        "label": "_nextUnstakeId",
        "offset": 0,
        "slot": "8",
        "type": "t_uint256"
      }
    ],
    "types": {
      "t_address": {
        "encoding": "inplace",
        "label": "address",
        "numberOfBytes": "20"
      },
      "t_array(t_struct(UnstakeRequest)2800_storage)dyn_storage": {
        "base": "t_struct(UnstakeRequest)2800_storage",
        "encoding": "dynamic_array",
        "label": "struct StakingVault.UnstakeRequest[]",
        "numberOfBytes": "32"
      },
      "t_bool": {
        "encoding": "inplace",
        "label": "bool",
        "numberOfBytes": "1"
      },
      "t_bytes32": {
        "encoding": "inplace",
        "label": "bytes32",
        "numberOfBytes": "32"
      },
      "t_mapping(t_address,t_array(t_struct(UnstakeRequest)2800_storage)dyn_storage)": {
        "encoding": "mapping",
        "key": "t_address",
        "label": "mapping(address => struct StakingVault.UnstakeRequest[])",
        "numberOfBytes": "32",
        "value": "t_array(t_struct(UnstakeRequest)2800_storage)dyn_storage"
      },
      "t_mapping(t_address,t_bool)": {
        "encoding": "mapping",
        "key": "t_address",
        "label": "mapping(address => bool)",
        "numberOfBytes": "32",
        "value": "t_bool"
      },
      "t_mapping(t_address,t_uint256)": {
        "encoding": "mapping",
        "key": "t_address",
        "label": "mapping(address => uint256)",
        "numberOfBytes": "32",
        "value": "t_uint256"
      },
      "t_mapping(t_bytes32,t_struct(RoleData)19_storage)": {
        "encoding": "mapping",
        "key": "t_bytes32",
        "label": "mapping(bytes32 => struct AccessControl.RoleData)",
        "numberOfBytes": "32",
        "value": "t_struct(RoleData)19_storage"
      },
      "t_struct(RoleData)19_storage": {
        "encoding": "inplace",
        "label": "struct AccessControl.RoleData",
        "members": [
          {
            "astId": 16,
            "contract": "contracts/staking/StakingVault.sol:StakingVault",
            "label": "members",
            "offset": 0,
            "slot": "0",
            "type": "t_mapping(t_address,t_bool)"
          },
          {
            "astId": 18,
            "contract": "contracts/staking/StakingVault.sol:StakingVault",
            "label": "adminRole",
            "offset": 0,
            "slot": "1",
            "type": "t_bytes32"
          }
        ],
        "numberOfBytes": "64"
      },
      "t_struct(UnstakeRequest)2800_storage": {
        "encoding": "inplace",
        "label": "struct StakingVault.UnstakeRequest",
        "members": [
          {
            "astId": 2795,
            "contract": "contracts/staking/StakingVault.sol:StakingVault",
            "label": "amount",
            "offset": 0,
            "slot": "0",
            "type": "t_uint256"
          },
          {
            "astId": 2797,
            "contract": "contracts/staking/StakingVault.sol:StakingVault",
            "label": "timestamp",
            "offset": 0,
            "slot": "1",
            "type": "t_uint256"
          },
          {
            "astId": 2799,
            "contract": "contracts/staking/StakingVault.sol:StakingVault",
            "label": "id",
            "offset": 0,
            "slot": "2",
            "type": "t_uint256"
          }
        ],
        "numberOfBytes": "96"
      },
      "t_uint256": {
        "encoding": "inplace",
        "label": "uint256",
        "numberOfBytes": "32"
      }
    }
  }
}