{
    "_format": "hh-sol-artifact-1",
    "contractName": "StakedToken",
    "sourceName": "contracts/token/StakedToken.sol",
    "abi": [
        {
            "inputs": [],
            "name": "AccessControlBadConfirmation",
            "type": "error"
        },
        {
            "inputs": [
                {
                    "internalType": "address",
                    "name": "account",
                    "type": "address"
                },
                {
                    "internalType": "bytes32",
                    "name": "neededRole",
                    "type": "bytes32"
                }
            ],
            "name": "AccessControlUnauthorizedAccount",
            "type": "error"
        },
        {
            "inputs": [
                {
                    "internalType": "address",
                    "name": "target",
                    "type": "address"
                }
            ],
            "name": "AddressEmptyCode",
            "type": "error"
        },
        {
            "inputs": [
                {
                    "internalType": "address",
                    "name": "account",
                    "type": "address"
                }
            ],
            "name": "AddressInsufficientBalance",
            "type": "error"
        },
        {
            "inputs": [],
            "name": "CheckpointUnorderedInsertion",
            "type": "error"
        },
        {
            "inputs": [],
            "name": "ECDSAInvalidSignature",
            "type": "error"
        },
        {
            "inputs": [
                {
                    "internalType": "uint256",
                    "name": "length",
                    "type": "uint256"
                }
            ],
            "name": "ECDSAInvalidSignatureLength",
            "type": "error"
        },
        {
            "inputs": [
                {
                    "internalType": "bytes32",
                    "name": "s",
                    "type": "bytes32"
                }
            ],
            "name": "ECDSAInvalidSignatureS",
            "type": "error"
        },
        {
            "inputs": [
                {
                    "internalType": "uint256",
                    "name": "timepoint",
                    "type": "uint256"
                },
                {
                    "internalType": "uint48",
                    "name": "clock",
                    "type": "uint48"
                }
            ],
            "name": "ERC5805FutureLookup",
            "type": "error"
        },
        {
            "inputs": [],
            "name": "ERC6372InconsistentClock",
            "type": "error"
        },
        {
            "inputs": [],
            "name": "FailedInnerCall",
            "type": "error"
        },
        {
            "inputs": [
                {
                    "internalType": "address",
                    "name": "account",
                    "type": "address"
                },
                {
                    "internalType": "uint256",
                    "name": "currentNonce",
                    "type": "uint256"
                }
            ],
            "name": "InvalidAccountNonce",
            "type": "error"
        },
        {
            "inputs": [],
            "name": "InvalidInitialization",
            "type": "error"
        },
        {
            "inputs": [],
            "name": "NotInitializing",
            "type": "error"
        },
        {
            "inputs": [],
            "name": "ReentrancyGuardReentrantCall",
            "type": "error"
        },
        {
            "inputs": [
                {
                    "internalType": "uint8",
                    "name": "bits",
                    "type": "uint8"
                },
                {
                    "internalType": "uint256",
                    "name": "value",
                    "type": "uint256"
                }
            ],
            "name": "SafeCastOverflowedUintDowncast",
            "type": "error"
        },
        {
            "inputs": [
                {
                    "internalType": "address",
                    "name": "token",
                    "type": "address"
                }
            ],
            "name": "SafeERC20FailedOperation",
            "type": "error"
        },
        {
            "inputs": [
                {
                    "internalType": "uint256",
                    "name": "expiry",
                    "type": "uint256"
                }
            ],
            "name": "VotesExpiredSignature",
            "type": "error"
        },
        {
            "anonymous": false,
            "inputs": [
                {
                    "indexed": false,
                    "internalType": "bool",
                    "name": "adminUnlocked",
                    "type": "bool"
                }
            ],
            "name": "AdminUnlocked",
            "type": "event"
        },
        {
            "anonymous": false,
            "inputs": [
                {
                    "indexed": true,
                    "internalType": "address",
                    "name": "user",
                    "type": "address"
                },
                {
                    "indexed": false,
                    "internalType": "uint256",
                    "name": "id",
                    "type": "uint256"
                },
                {
                    "indexed": false,
                    "internalType": "bool",
                    "name": "autoRenew",
                    "type": "bool"
                }
            ],
            "name": "AutoRenew",
            "type": "event"
        },
        {
            "anonymous": false,
            "inputs": [
                {
                    "indexed": true,
                    "internalType": "address",
                    "name": "delegator",
                    "type": "address"
                },
                {
                    "indexed": true,
                    "internalType": "address",
                    "name": "fromDelegate",
                    "type": "address"
                },
                {
                    "indexed": true,
                    "internalType": "address",
                    "name": "toDelegate",
                    "type": "address"
                }
            ],
            "name": "DelegateChanged",
            "type": "event"
        },
        {
            "anonymous": false,
            "inputs": [
                {
                    "indexed": true,
                    "internalType": "address",
                    "name": "delegate",
                    "type": "address"
                },
                {
                    "indexed": false,
                    "internalType": "uint256",
                    "name": "previousVotes",
                    "type": "uint256"
                },
                {
                    "indexed": false,
                    "internalType": "uint256",
                    "name": "newVotes",
                    "type": "uint256"
                }
            ],
            "name": "DelegateVotesChanged",
            "type": "event"
        },
        {
            "anonymous": false,
            "inputs": [],
            "name": "EIP712DomainChanged",
            "type": "event"
        },
        {
            "anonymous": false,
            "inputs": [
                {
                    "indexed": true,
                    "internalType": "address",
                    "name": "user",
                    "type": "address"
                },
                {
                    "indexed": false,
                    "internalType": "uint256",
                    "name": "id",
                    "type": "uint256"
                },
                {
                    "indexed": false,
                    "internalType": "uint8",
                    "name": "numWeeks",
                    "type": "uint8"
                }
            ],
            "name": "Extend",
            "type": "event"
        },
        {
            "anonymous": false,
            "inputs": [
                {
                    "indexed": false,
                    "internalType": "uint64",
                    "name": "version",
                    "type": "uint64"
                }
            ],
            "name": "Initialized",
            "type": "event"
        },
        {
            "anonymous": false,
            "inputs": [
                {
                    "indexed": true,
                    "internalType": "bytes32",
                    "name": "role",
                    "type": "bytes32"
                },
                {
                    "indexed": true,
                    "internalType": "bytes32",
                    "name": "previousAdminRole",
                    "type": "bytes32"
                },
                {
                    "indexed": true,
                    "internalType": "bytes32",
                    "name": "newAdminRole",
                    "type": "bytes32"
                }
            ],
            "name": "RoleAdminChanged",
            "type": "event"
        },
        {
            "anonymous": false,
            "inputs": [
                {
                    "indexed": true,
                    "internalType": "bytes32",
                    "name": "role",
                    "type": "bytes32"
                },
                {
                    "indexed": true,
                    "internalType": "address",
                    "name": "account",
                    "type": "address"
                },
                {
                    "indexed": true,
                    "internalType": "address",
                    "name": "sender",
                    "type": "address"
                }
            ],
            "name": "RoleGranted",
            "type": "event"
        },
        {
            "anonymous": false,
            "inputs": [
                {
                    "indexed": true,
                    "internalType": "bytes32",
                    "name": "role",
                    "type": "bytes32"
                },
                {
                    "indexed": true,
                    "internalType": "address",
                    "name": "account",
                    "type": "address"
                },
                {
                    "indexed": true,
                    "internalType": "address",
                    "name": "sender",
                    "type": "address"
                }
            ],
            "name": "RoleRevoked",
            "type": "event"
        },
        {
            "anonymous": false,
            "inputs": [
                {
                    "indexed": true,
                    "internalType": "address",
                    "name": "user",
                    "type": "address"
                },
                {
                    "indexed": false,
                    "internalType": "uint256",
                    "name": "id",
                    "type": "uint256"
                },
                {
                    "indexed": false,
                    "internalType": "uint256",
                    "name": "amount",
                    "type": "uint256"
                },
                {
                    "indexed": false,
                    "internalType": "uint8",
                    "name": "numWeeks",
                    "type": "uint8"
                }
            ],
            "name": "Stake",
            "type": "event"
        },
        {
            "anonymous": false,
            "inputs": [
                {
                    "indexed": true,
                    "internalType": "address",
                    "name": "user",
                    "type": "address"
                },
                {
                    "indexed": false,
                    "internalType": "uint256",
                    "name": "id",
                    "type": "uint256"
                },
                {
                    "indexed": false,
                    "internalType": "uint256",
                    "name": "amount",
                    "type": "uint256"
                }
            ],
            "name": "Withdraw",
            "type": "event"
        },
        {
            "inputs": [],
            "name": "ADMIN_ROLE",
            "outputs": [
                {
                    "internalType": "bytes32",
                    "name": "",
                    "type": "bytes32"
                }
            ],
            "stateMutability": "view",
            "type": "function"
        },
        {
            "inputs": [],
            "name": "CLOCK_MODE",
            "outputs": [
                {
                    "internalType": "string",
                    "name": "",
                    "type": "string"
                }
            ],
            "stateMutability": "view",
            "type": "function"
        },
        {
            "inputs": [],
            "name": "DEFAULT_ADMIN_ROLE",
            "outputs": [
                {
                    "internalType": "bytes32",
                    "name": "",
                    "type": "bytes32"
                }
            ],
            "stateMutability": "view",
            "type": "function"
        },
        {
            "inputs": [],
            "name": "DENOM",
            "outputs": [
                {
                    "internalType": "uint16",
                    "name": "",
                    "type": "uint16"
                }
            ],
            "stateMutability": "view",
            "type": "function"
        },
        {
            "inputs": [],
            "name": "MAX_POSITIONS",
            "outputs": [
                {
                    "internalType": "uint256",
                    "name": "",
                    "type": "uint256"
                }
            ],
            "stateMutability": "view",
            "type": "function"
        },
        {
            "inputs": [],
            "name": "adminUnlocked",
            "outputs": [
                {
                    "internalType": "bool",
                    "name": "",
                    "type": "bool"
                }
            ],
            "stateMutability": "view",
            "type": "function"
        },
        {
            "inputs": [
                {
                    "internalType": "address",
                    "name": "account",
                    "type": "address"
                }
            ],
            "name": "balanceOf",
            "outputs": [
                {
                    "internalType": "uint256",
                    "name": "",
                    "type": "uint256"
                }
            ],
            "stateMutability": "view",
            "type": "function"
        },
        {
            "inputs": [
                {
                    "internalType": "address",
                    "name": "account",
                    "type": "address"
                },
                {
                    "internalType": "uint256",
                    "name": "timestamp",
                    "type": "uint256"
                }
            ],
            "name": "balanceOfAt",
            "outputs": [
                {
                    "internalType": "uint256",
                    "name": "",
                    "type": "uint256"
                }
            ],
            "stateMutability": "view",
            "type": "function"
        },
        {
            "inputs": [
                {
                    "internalType": "address",
                    "name": "account",
                    "type": "address"
                },
                {
                    "internalType": "uint256",
                    "name": "index",
                    "type": "uint256"
                }
            ],
            "name": "balanceOfLock",
            "outputs": [
                {
                    "internalType": "uint256",
                    "name": "",
                    "type": "uint256"
                }
            ],
            "stateMutability": "view",
            "type": "function"
        },
        {
            "inputs": [],
            "name": "baseToken",
            "outputs": [
                {
                    "internalType": "address",
                    "name": "",
                    "type": "address"
                }
            ],
            "stateMutability": "view",
            "type": "function"
        },
        {
            "inputs": [],
            "name": "clock",
            "outputs": [
                {
                    "internalType": "uint48",
                    "name": "",
                    "type": "uint48"
                }
            ],
            "stateMutability": "view",
            "type": "function"
        },
        {
            "inputs": [],
            "name": "decimals",
            "outputs": [
                {
                    "internalType": "uint8",
                    "name": "",
                    "type": "uint8"
                }
            ],
            "stateMutability": "pure",
            "type": "function"
        },
        {
            "inputs": [
                {
                    "internalType": "address",
                    "name": "delegatee",
                    "type": "address"
                }
            ],
            "name": "delegate",
            "outputs": [],
            "stateMutability": "nonpayable",
            "type": "function"
        },
        {
            "inputs": [
                {
                    "internalType": "address",
                    "name": "delegatee",
                    "type": "address"
                },
                {
                    "internalType": "uint256",
                    "name": "nonce",
                    "type": "uint256"
                },
                {
                    "internalType": "uint256",
                    "name": "expiry",
                    "type": "uint256"
                },
                {
                    "internalType": "uint8",
                    "name": "v",
                    "type": "uint8"
                },
                {
                    "internalType": "bytes32",
                    "name": "r",
                    "type": "bytes32"
                },
                {
                    "internalType": "bytes32",
                    "name": "s",
                    "type": "bytes32"
                }
            ],
            "name": "delegateBySig",
            "outputs": [],
            "stateMutability": "nonpayable",
            "type": "function"
        },
        {
            "inputs": [
                {
                    "internalType": "address",
                    "name": "account",
                    "type": "address"
                }
            ],
            "name": "delegates",
            "outputs": [
                {
                    "internalType": "address",
                    "name": "",
                    "type": "address"
                }
            ],
            "stateMutability": "view",
            "type": "function"
        },
        {
            "inputs": [],
            "name": "eip712Domain",
            "outputs": [
                {
                    "internalType": "bytes1",
                    "name": "fields",
                    "type": "bytes1"
                },
                {
                    "internalType": "string",
                    "name": "name",
                    "type": "string"
                },
                {
                    "internalType": "string",
                    "name": "version",
                    "type": "string"
                },
                {
                    "internalType": "uint256",
                    "name": "chainId",
                    "type": "uint256"
                },
                {
                    "internalType": "address",
                    "name": "verifyingContract",
                    "type": "address"
                },
                {
                    "internalType": "bytes32",
                    "name": "salt",
                    "type": "bytes32"
                },
                {
                    "internalType": "uint256[]",
                    "name": "extensions",
                    "type": "uint256[]"
                }
            ],
            "stateMutability": "view",
            "type": "function"
        },
        {
            "inputs": [
                {
                    "internalType": "uint256",
                    "name": "id",
                    "type": "uint256"
                },
                {
                    "internalType": "uint8",
                    "name": "numWeeks",
                    "type": "uint8"
                }
            ],
            "name": "extend",
            "outputs": [],
            "stateMutability": "nonpayable",
            "type": "function"
        },
        {
            "inputs": [
                {
                    "internalType": "address",
                    "name": "account",
                    "type": "address"
                },
                {
                    "internalType": "uint256",
                    "name": "id",
                    "type": "uint256"
                }
            ],
            "name": "getMaturity",
            "outputs": [
                {
                    "internalType": "uint256",
                    "name": "",
                    "type": "uint256"
                }
            ],
            "stateMutability": "view",
            "type": "function"
        },
        {
            "inputs": [
                {
                    "internalType": "uint256",
                    "name": "timepoint",
                    "type": "uint256"
                }
            ],
            "name": "getPastTotalSupply",
            "outputs": [
                {
                    "internalType": "uint256",
                    "name": "",
                    "type": "uint256"
                }
            ],
            "stateMutability": "view",
            "type": "function"
        },
        {
            "inputs": [
                {
                    "internalType": "address",
                    "name": "account",
                    "type": "address"
                },
                {
                    "internalType": "uint256",
                    "name": "timepoint",
                    "type": "uint256"
                }
            ],
            "name": "getPastVotes",
            "outputs": [
                {
                    "internalType": "uint256",
                    "name": "",
                    "type": "uint256"
                }
            ],
            "stateMutability": "view",
            "type": "function"
        },
        {
            "inputs": [
                {
                    "internalType": "address",
                    "name": "account",
                    "type": "address"
                },
                {
                    "internalType": "uint256",
                    "name": "start",
                    "type": "uint256"
                },
                {
                    "internalType": "uint256",
                    "name": "count",
                    "type": "uint256"
                }
            ],
            "name": "getPositions",
            "outputs": [
                {
                    "components": [
                        {
                            "internalType": "uint256",
                            "name": "amount",
                            "type": "uint256"
                        },
                        {
                            "internalType": "uint256",
                            "name": "start",
                            "type": "uint256"
                        },
                        {
                            "internalType": "uint256",
                            "name": "end",
                            "type": "uint256"
                        },
                        {
                            "internalType": "uint8",
                            "name": "numWeeks",
                            "type": "uint8"
                        },
                        {
                            "internalType": "bool",
                            "name": "autoRenew",
                            "type": "bool"
                        },
                        {
                            "internalType": "uint256",
                            "name": "id",
                            "type": "uint256"
                        }
                    ],
                    "internalType": "struct StakedToken.Lock[]",
                    "name": "",
                    "type": "tuple[]"
                }
            ],
            "stateMutability": "view",
            "type": "function"
        },
        {
            "inputs": [
                {
                    "internalType": "bytes32",
                    "name": "role",
                    "type": "bytes32"
                }
            ],
            "name": "getRoleAdmin",
            "outputs": [
                {
                    "internalType": "bytes32",
                    "name": "",
                    "type": "bytes32"
                }
            ],
            "stateMutability": "view",
            "type": "function"
        },
        {
            "inputs": [
                {
                    "internalType": "address",
                    "name": "account",
                    "type": "address"
                }
            ],
            "name": "getVotes",
            "outputs": [
                {
                    "internalType": "uint256",
                    "name": "",
                    "type": "uint256"
                }
            ],
            "stateMutability": "view",
            "type": "function"
        },
        {
            "inputs": [
                {
                    "internalType": "bytes32",
                    "name": "role",
                    "type": "bytes32"
                },
                {
                    "internalType": "address",
                    "name": "account",
                    "type": "address"
                }
            ],
            "name": "grantRole",
            "outputs": [],
            "stateMutability": "nonpayable",
            "type": "function"
        },
        {
            "inputs": [
                {
                    "internalType": "bytes32",
                    "name": "role",
                    "type": "bytes32"
                },
                {
                    "internalType": "address",
                    "name": "account",
                    "type": "address"
                }
            ],
            "name": "hasRole",
            "outputs": [
                {
                    "internalType": "bool",
                    "name": "",
                    "type": "bool"
                }
            ],
            "stateMutability": "view",
            "type": "function"
        },
        {
            "inputs": [
                {
                    "internalType": "address",
                    "name": "baseToken_",
                    "type": "address"
                },
                {
                    "internalType": "uint8",
                    "name": "maxWeeks_",
                    "type": "uint8"
                },
                {
                    "internalType": "string",
                    "name": "name_",
                    "type": "string"
                },
                {
                    "internalType": "string",
                    "name": "symbol_",
                    "type": "string"
                }
            ],
            "name": "initialize",
            "outputs": [],
            "stateMutability": "nonpayable",
            "type": "function"
        },
        {
            "inputs": [
                {
                    "internalType": "address",
                    "name": "",
                    "type": "address"
                },
                {
                    "internalType": "uint256",
                    "name": "",
                    "type": "uint256"
                }
            ],
            "name": "locks",
            "outputs": [
                {
                    "internalType": "uint256",
                    "name": "amount",
                    "type": "uint256"
                },
                {
                    "internalType": "uint256",
                    "name": "start",
                    "type": "uint256"
                },
                {
                    "internalType": "uint256",
                    "name": "end",
                    "type": "uint256"
                },
                {
                    "internalType": "uint8",
                    "name": "numWeeks",
                    "type": "uint8"
                },
                {
                    "internalType": "bool",
                    "name": "autoRenew",
                    "type": "bool"
                },
                {
                    "internalType": "uint256",
                    "name": "id",
                    "type": "uint256"
                }
            ],
            "stateMutability": "view",
            "type": "function"
        },
        {
            "inputs": [],
            "name": "maxWeeks",
            "outputs": [
                {
                    "internalType": "uint8",
                    "name": "",
                    "type": "uint8"
                }
            ],
            "stateMutability": "view",
            "type": "function"
        },
        {
            "inputs": [],
            "name": "name",
            "outputs": [
                {
                    "internalType": "string",
                    "name": "",
                    "type": "string"
                }
            ],
            "stateMutability": "view",
            "type": "function"
        },
        {
            "inputs": [
                {
                    "internalType": "address",
                    "name": "owner",
                    "type": "address"
                }
            ],
            "name": "nonces",
            "outputs": [
                {
                    "internalType": "uint256",
                    "name": "",
                    "type": "uint256"
                }
            ],
            "stateMutability": "view",
            "type": "function"
        },
        {
            "inputs": [
                {
                    "internalType": "address",
                    "name": "account",
                    "type": "address"
                }
            ],
            "name": "numPositions",
            "outputs": [
                {
                    "internalType": "uint256",
                    "name": "",
                    "type": "uint256"
                }
            ],
            "stateMutability": "view",
            "type": "function"
        },
        {
            "inputs": [
                {
                    "internalType": "bytes32",
                    "name": "role",
                    "type": "bytes32"
                },
                {
                    "internalType": "address",
                    "name": "callerConfirmation",
                    "type": "address"
                }
            ],
            "name": "renounceRole",
            "outputs": [],
            "stateMutability": "nonpayable",
            "type": "function"
        },
        {
            "inputs": [
                {
                    "internalType": "bytes32",
                    "name": "role",
                    "type": "bytes32"
                },
                {
                    "internalType": "address",
                    "name": "account",
                    "type": "address"
                }
            ],
            "name": "revokeRole",
            "outputs": [],
            "stateMutability": "nonpayable",
            "type": "function"
        },
        {
            "inputs": [
                {
                    "internalType": "bool",
                    "name": "adminUnlocked_",
                    "type": "bool"
                }
            ],
            "name": "setAdminUnlocked",
            "outputs": [],
            "stateMutability": "nonpayable",
            "type": "function"
        },
        {
            "inputs": [
                {
                    "internalType": "uint8",
                    "name": "maxWeeks_",
                    "type": "uint8"
                }
            ],
            "name": "setMaxWeeks",
            "outputs": [],
            "stateMutability": "nonpayable",
            "type": "function"
        },
        {
            "inputs": [
                {
                    "internalType": "uint256",
                    "name": "amount",
                    "type": "uint256"
                }
            ],
            "name": "stake",
            "outputs": [],
            "stateMutability": "nonpayable",
            "type": "function"
        },
        {
            "inputs": [
                {
                    "internalType": "address",
                    "name": "account",
                    "type": "address"
                }
            ],
            "name": "stakedAmountOf",
            "outputs": [
                {
                    "internalType": "uint256",
                    "name": "",
                    "type": "uint256"
                }
            ],
            "stateMutability": "view",
            "type": "function"
        },
        {
            "inputs": [
                {
                    "internalType": "bytes4",
                    "name": "interfaceId",
                    "type": "bytes4"
                }
            ],
            "name": "supportsInterface",
            "outputs": [
                {
                    "internalType": "bool",
                    "name": "",
                    "type": "bool"
                }
            ],
            "stateMutability": "view",
            "type": "function"
        },
        {
            "inputs": [],
            "name": "symbol",
            "outputs": [
                {
                    "internalType": "string",
                    "name": "",
                    "type": "string"
                }
            ],
            "stateMutability": "view",
            "type": "function"
        },
        {
            "inputs": [
                {
                    "internalType": "uint256",
                    "name": "id",
                    "type": "uint256"
                }
            ],
            "name": "toggleAutoRenew",
            "outputs": [],
            "stateMutability": "nonpayable",
            "type": "function"
        },
        {
            "inputs": [
                {
                    "internalType": "uint256",
                    "name": "id",
                    "type": "uint256"
                }
            ],
            "name": "withdraw",
            "outputs": [],
            "stateMutability": "nonpayable",
            "type": "function"
        }
    ],
    "bytecode": "0x60808060405234601557613a78908161001b8239f35b600080fdfe6080604052600436101561001257600080fd5b60003560e01c806301ffc9a7146102a757806306fdde03146102a257806316343da41461029d578063248a9ca314610298578063288b1c68146102935780632b4bce311461028e5780632e1a7d4d146102895780632f2ff15d14610284578063313ce5671461027f57806336568abe1461027a5780633a46b1a81461027557806342fe0980146102705780634bf5d7e91461026b5780634ee2cd7e1461026657806355168c9314610261578063587cde1e1461025c5780635c19a95c146102575780635fcdad9114610252578063605830ef1461024d5780636e7ed07b1461024857806370a082311461024357806375b238fc1461023e5780637e530d2f146102395780637ecebe001461023457806384b0196e1461022f5780638e539e8c1461022a57806391d148541461022557806391ddadf41461022057806395d89b411461021b5780639ab24eb014610216578063a217fddf14610211578063a694fc3a1461020c578063b425f80214610207578063b7d7702c14610202578063be3956bf146101fd578063c3cda520146101f8578063c55dae63146101f3578063d547741f146101ee578063de6e659c146101e9578063f48355b9146101e45763f7b24e08146101df57600080fd5b611a3f565b611945565b6118fb565b6118ca565b6118a1565b611764565b6116f3565b6116af565b611617565b61146f565b611453565b611417565b61136f565b611343565b6112e3565b611189565b6110b8565b610fda565b610fb4565b610f79565b610f54565b610f1d565b610ef6565b610ed3565b610eb1565b610e62565b610d37565b610d10565b610c7e565b610aba565b6108a0565b61085a565b61083e565b610808565b61067b565b61065a565b610518565b610451565b610434565b610357565b346102fd5760203660031901126102fd5760043563ffffffff60e01b81168091036102fd57602090637965db0b60e01b81149081156102ec575b506040519015158152f35b6301ffc9a760e01b149050386102e1565b600080fd5b919082519283825260005b84811061032e575050826000602080949584010152601f8019910116010190565b8060208092840101518282860101520161030d565b906020610354928181520190610302565b90565b346102fd5760003660031901126102fd57604051600060045461037981611a5b565b808452906001811690811561041057506001146103b1575b6103ad836103a181850382610a17565b60405191829182610343565b0390f35b600460009081527f8a35acfbc15ff81a39ae7d344fd709f28e8600b4aa8c65c6b64bfe7fe36bd19b939250905b8082106103f6575090915081016020016103a1610391565b9192600181602092548385880101520191019092916103de565b60ff191660208086019190915291151560051b840190910191506103a19050610391565b346102fd5760003660031901126102fd5760206040516127108152f35b346102fd5760203660031901126102fd57602061046f600435611c17565b604051908152f35b600435906001600160a01b03821682036102fd57565b602435906001600160a01b03821682036102fd57565b602060408183019282815284518094520192019060005b8181106104c75750505090565b909192602060c060019260a087518051835284810151858401526040810151604084015260ff6060820151166060840152608081015115156080840152015160a082015201940191019190916104ba565b346102fd5760603660031901126102fd57610531610477565b60243560443561054081611c38565b9261054e6040519485610a17565b818452601f1961055d83611c38565b0160005b81811061061957505060009183925b61057a8286611c82565b8410806105f8575b156105ea57906105e16105db61057a936105c06105ba886105b58960018060a01b03166000526001602052604060002090565b6115f6565b50611ca3565b6105ca828b611c8f565b526105d5818a611c8f565b50611c65565b94611c65565b93909150610570565b604051806103ad88826104a3565b506001600160a01b0383166000908152600160205260409020548410610582565b602090604051610628816109f7565b60008152600083820152600060408201526000606082015260006080820152600060a082015282828901015201610561565b346102fd5760003660031901126102fd57602060ff60035416604051908152f35b346102fd5760203660031901126102fd5761079a60043561069a6127fc565b6106a48133612838565b906106c86105ba836105b53360018060a01b03166000526001602052604060002090565b604081015142108015906107f9575b6106e090611cef565b6106f66106f06080830151151590565b15611d31565b513360009081526001602052604090209092906107139054611d75565b908181036107b3575b505033600090815260016020526040902061073690611e20565b600054610760908390339061075b906001600160a01b03165b6001600160a01b031690565b6128c1565b604080519182526020820183905233917ff279e6a1f5e320cca91135676d9cb6e44ca8a08c0b88342bcdb1144f6511b5689190a233612901565b6107b16001600080516020613a0383398151915255565b005b3360009081526001602052604090206107f2926107ec916107d491906115f6565b503360009081526001602052604090209092906115f6565b90611da7565b388061071c565b5060035460081c60ff166106d7565b346102fd5760403660031901126102fd576107b160043561082761048d565b9061083961083482611c17565b612a8d565b612c60565b346102fd5760003660031901126102fd57602060405160128152f35b346102fd5760403660031901126102fd5760043561087661048d565b336001600160a01b0382160361088f576107b191612d0e565b63334bd91960e11b60005260046000fd5b346102fd5760403660031901126102fd576108b9610477565b6024359065ffffffffffff6108cd43612db3565b16808310156109a957506108e36108e9916115a7565b91612db3565b90600090805482938160058111610948575b50906103ad9461090b9284613484565b8061092d5750505b6040516001600160d01b0390911681529081906020820190565b61093690611d75565b9082526020909120015460301c610913565b9461095286613315565b86039586116109a4576103ad9561090b9385875265ffffffffffff826020892001541665ffffffffffff8516106000146109925750915b919250946108fb565b92915061099e90611c74565b90610989565b611c4f565b82637669fc0f60e11b60005260045260245260446000fd5b6024359060ff821682036102fd57565b6064359060ff821682036102fd57565b634e487b7160e01b600052604160045260246000fd5b60c081019081106001600160401b03821117610a1257604052565b6109e1565b90601f801991011681019081106001600160401b03821117610a1257604052565b60405190610a4760c083610a17565b565b60405190610a47604083610a17565b6001600160401b038111610a1257601f01601f191660200190565b81601f820112156102fd57803590610a8a82610a58565b92610a986040519485610a17565b828452602083830101116102fd57816000926020809301838601378301015290565b346102fd5760803660031901126102fd57610ad3610477565b610adb6109c1565b906044356001600160401b0381116102fd57610afb903690600401610a73565b6064356001600160401b0381116102fd57610b1a903690600401610a73565b90600080516020613a2383398151915254936001600160401b03610b59610b4c610b488860ff9060401c1690565b1590565b966001600160401b031690565b1680159081610c76575b6001149081610c6c575b159081610c63575b50610c5257610bba9385610bb160016001600160401b0319600080516020613a23833981519152541617600080516020613a2383398151915255565b610c1b5761223f565b610bc057005b610bec60ff60401b19600080516020613a238339815191525416600080516020613a2383398151915255565b604051600181527fc7f505b2f371ae2175ee4913f4499e1f2633a7b5936321eed1cdaeb6115181d290602090a1005b610c4d600160401b60ff60401b19600080516020613a23833981519152541617600080516020613a2383398151915255565b61223f565b63f92ee8a960e01b60005260046000fd5b90501538610b75565b303b159150610b6d565b869150610b63565b346102fd5760003660031901126102fd57610c9843612db3565b65ffffffffffff80610ca943612db3565b16911603610cff576103ad6040805190610cc38183610a17565b601d82527f6d6f64653d626c6f636b6e756d6265722666726f6d3d64656661756c74000000602083015251918291602083526020830190610302565b6301bfc1c560e61b60005260046000fd5b346102fd5760403660031901126102fd57602061046f610d2e610477565b602435906124a4565b346102fd5760403660031901126102fd576004357f2b1bad57ed45c0298a4d6a14dc8850fb68015d5bd10457c2ec5ff8b587230173610e48610d776109c1565b610d7f6127fc565b610da0610d8c8533612838565b3360009081526001602052604090206115f6565b5060038101610e2c6002825493610dbe6106f08660ff9060081c1690565b0191610e1e85610e18610dde865497610dd8894210612507565b60ff1690565b96610e06610dec848a612545565b60ff610dfd610dd860035460ff1690565b91161115612559565b610e1260ff84166125b3565b90611c82565b95612545565b60ff1660ff19825416179055565b556040805194855260ff90911660208501523393918291820190565b0390a26107b16001600080516020613a0383398151915255565b346102fd5760203660031901126102fd576001600160a01b03610e83610477565b16600052600080516020613963833981519152602052602060018060a01b0360406000205416604051908152f35b346102fd5760203660031901126102fd576107b1610ecd610477565b33612ec4565b346102fd5760203660031901126102fd57602061046f610ef1610477565b6125f8565b346102fd5760403660031901126102fd57602061046f610f14610477565b60243590612650565b346102fd5760203660031901126102fd5760043560ff81168091036102fd57610f44612a1b565b60ff196003541617600355600080f35b346102fd5760203660031901126102fd57602061046f610f72610477565b42906124a4565b346102fd5760003660031901126102fd5760206040517fa49807205ce4d355092ef5a8a18f56e8913cf4a201fbe287825b095693c217758152f35b346102fd5760003660031901126102fd57602060ff60035460081c166040519015158152f35b346102fd5760203660031901126102fd576001600160a01b03610ffb610477565b166000527f5ab42ced628888259c08ac98db1eb0cf702fc1501344311d8b100cd1bfe4bb006020526020604060002054604051908152f35b92939161105561106392600f60f81b865260e0602087015260e0860190610302565b908482036040860152610302565b92606083015260018060a01b03166080820152600060a082015260c08183039101526020808351928381520192019060005b8181106110a25750505090565b8251845260209384019390920191600101611095565b346102fd5760003660031901126102fd577fa16a46d94261c7517cc8ff89f61c0ce93598e3c849801011dee649a6a557d100541580611160575b15611123576110ff611a95565b611107611b66565b906103ad6111136126ce565b6040519384933091469186611033565b60405162461bcd60e51b81526020600482015260156024820152741152540dcc4c8e88155b9a5b9a5d1a585b1a5e9959605a1b6044820152606490fd5b507fa16a46d94261c7517cc8ff89f61c0ce93598e3c849801011dee649a6a557d10154156110f2565b346102fd5760203660031901126102fd5760043565ffffffffffff6111ad43612db3565b1690818110156112cc576111c090612db3565b60006000805160206139c38339815191525481928160058111611262575b50906103ad936111fc926000805160206139c3833981519152613484565b8061121c57506040516001600160d01b0390911681529081906020820190565b61122590611d75565b6000805160206139c38339815191529091527f88c46c62109817164d0ae1873830d4299a82e5daf552a3d8e989b27638fcf748015460301c610913565b9361126c85613315565b85039485116109a4576103ad946111fc936000805160206139c3833981519152865265ffffffffffff826020882001541665ffffffffffff8516106000146112ba5750915b919250936111de565b9291506112c690611c74565b906112b1565b637669fc0f60e11b60005260045260245260446000fd5b346102fd5760403660031901126102fd57602060ff61133760043561130661048d565b906000526000805160206139e3833981519152845260406000209060018060a01b0316600052602052604060002090565b54166040519015158152f35b346102fd5760003660031901126102fd57602061135f43612db3565b65ffffffffffff60405191168152f35b346102fd5760003660031901126102fd57604051600060055461139181611a5b565b808452906001811690811561041057506001146113b8576103ad836103a181850382610a17565b600560009081527f036b6384b5eca791c62761152d0c79bb0604c104a5fb6f4eb0703f3154bb3db0939250905b8082106113fd575090915081016020016103a1610391565b9192600181602092548385880101520191019092916113e5565b346102fd5760203660031901126102fd5760206001600160d01b0361144a611445611440610477565b6115a7565b612f3e565b16604051908152f35b346102fd5760003660031901126102fd57602060405160008152f35b346102fd5760203660031901126102fd5761079a60043561148e6127fc565b6114998115156126ea565b3360009081526001602052604090206114b69060c8905410612736565b6000546114da9082906114d1906001600160a01b031661074f565b30903390612f6d565b60035460ff167f6fa2f6021ee337436cdf2b2570285886da18bc06402ce284d296504a0fe8f87561159e611516611510846125b3565b42611c82565b6115776002549161152e61152984611c65565b600255565b611536610a38565b90878252426020830152604082015261155586606083019060ff169052565b6001608082015260a08101928352336000908152600160205260409020612777565b51926040519182918633968491604091949360ff9160608501968552602085015216910152565b0390a233612994565b6001600160a01b031660009081527fe8b26c30fad74198956032a3533d903385d56dd795af560196f9c78d4af40d016020526040902090565b634e487b7160e01b600052603260045260246000fd5b8054821015611612576000526005602060002091020190600090565b6115e0565b346102fd5760403660031901126102fd57611630610477565b6001600160a01b031660009081526001602052604090208054602435908110156102fd5761165d916115f6565b5080546001820154600283015460038401546004909401546040805194855260208501939093529183015260ff808416606084015260089390931c9092161515608082015260a081019190915260c090f35b346102fd5760203660031901126102fd576001600160a01b036116d0610477565b1660005260016020526020604060002054604051908152f35b801515036102fd57565b346102fd5760203660031901126102fd577f1664fc9d2adc81edeb38788b177fdfe12c9c15bd10b40663e9744e1af1c56a866020600435611733816116e9565b61173b612a1b565b61ff0060035491151560081b169061ff001916178060035560ff6040519160081c1615158152a1005b346102fd5760c03660031901126102fd5761177d610477565b6044359060243561178c6109d1565b60843560a4359185421161188c5791611880916118879360426107b19860405160208101917fe48329057bfd03d55e49b547132e39cffd9c1820ad7b9d4c5307691425d15adf835260018060a01b038b1660408301528960608301526080820152608081526117fc60a082610a17565b519020611807613852565b61180f6138bc565b6040519060208201927f8b73c3c69bb8fe3d512ecc4cf759cc79239f7b179b0ffacaa9a75d522b39400f8452604083015260608201524660808201523060a082015260a0815261186060c082610a17565b519020906040519161190160f01b83526002830152602282015220612fb1565b9182612fc9565b612ec4565b85632341d78760e11b60005260045260246000fd5b346102fd5760003660031901126102fd576000546040516001600160a01b039091168152602090f35b346102fd5760403660031901126102fd576107b16004356118e961048d565b906118f661083482611c17565b612d0e565b346102fd5760403660031901126102fd57602061046f61193e6105ba61191f610477565b6001600160a01b031660009081526001855260409020602435906115f6565b4290612e04565b346102fd5760203660031901126102fd576004356119616127fc565b7f1d94e785ca79528225ae3b538b0fc686337b6c73da42dbfee64c8d01b0779913610e48611a266119a86119958533612838565b33600052600160205260406000206115f6565b5060038101906119d96119c3610b48845460ff9060081c1690565b835461ff00191690151560081b61ff0016178355565b6119f86119e860035460ff1690565b835460ff191660ff909116178355565b4260018201556002611a19611510611a14610dd8865460ff1690565b6125b3565b9101555460081c60ff1690565b6040805194855290151560208501523393918291820190565b346102fd5760003660031901126102fd57602060405160c88152f35b90600182811c92168015611a8b575b6020831014611a7557565b634e487b7160e01b600052602260045260246000fd5b91607f1691611a6a565b604051906000826000805160206139838339815191525491611ab683611a5b565b8083529260018116908115611b475750600114611ada575b610a4792500383610a17565b50600080516020613983833981519152600090815290917f42ad5d3e1f2e6e70edcf6d991b8a3023d3fca8047a131592f9edb9fd9b89d57d5b818310611b2b575050906020610a4792820101611ace565b6020919350806001915483858901015201910190918492611b13565b60209250610a4794915060ff191682840152151560051b820101611ace565b604051906000826000805160206139a38339815191525491611b8783611a5b565b8083529260018116908115611b475750600114611baa57610a4792500383610a17565b506000805160206139a3833981519152600090815290917f5f9ce34815f8e11431c7bb75a8e6886a91478f7ffc1dbb0a98dc240fddd76b755b818310611bfb575050906020610a4792820101611ace565b6020919350806001915483858901015201910190918492611be3565b6000526000805160206139e383398151915260205260016040600020015490565b6001600160401b038111610a125760051b60200190565b634e487b7160e01b600052601160045260246000fd5b60001981146109a45760010190565b90600182018092116109a457565b919082018092116109a457565b80518210156116125760209160051b010190565b90604051611cb0816109f7565b60a06004829480548452600181015460208501526002810154604085015260ff6003820154818116606087015260081c16151560808501520154910152565b15611cf657565b60405162461bcd60e51b8152602060048201526013602482015272131bd8dac81a5cc81b9bdd08195e1c1a5c9959606a1b6044820152606490fd5b15611d3857565b60405162461bcd60e51b81526020600482015260156024820152744c6f636b206973206175746f2d72656e6577696e6760581b6044820152606490fd5b6000198101919082116109a457565b919082039182116109a457565b634e487b7160e01b600052600060045260246000fd5b9190611e1b57808203611db8575050565b60048181925484556001810154600185015560028101546002850155611e146003850160ff60038401611df882825416849060ff1660ff19825416179055565b5460081c1661ff00825491151560081b169061ff001916179055565b0154910155565b611d91565b80548015611e5a576000190190611e3782826115f6565b611e1b576004816000809355826001820155826002820155826003820155015555565b634e487b7160e01b600052603160045260246000fd5b15611e7757565b60405162461bcd60e51b815260206004820152600d60248201526c24b73b30b634b2103a37b5b2b760991b6044820152606490fd5b601f8111611eb8575050565b6000805160206139838339815191526000526020600020906020601f840160051c83019310611f02575b601f0160051c01905b818110611ef6575050565b60008155600101611eeb565b9091508190611ee2565b601f8211611f1957505050565b6000526020600020906020601f840160051c83019310611f54575b601f0160051c01905b818110611f48575050565b60008155600101611f3d565b9091508190611f34565b9081516001600160401b038111610a1257611f9f81611f8b6000805160206139a383398151915254611a5b565b6000805160206139a3833981519152611f0c565b602092601f8211600114611fee57611fd192938291600092611fe3575b50508160011b916000199060031b1c19161790565b6000805160206139a383398151915255565b015190503880611fbc565b6000805160206139a3833981519152600052601f198216937f5f9ce34815f8e11431c7bb75a8e6886a91478f7ffc1dbb0a98dc240fddd76b759160005b86811061206f5750836001959610612056575b505050811b016000805160206139a383398151915255565b015160001960f88460031b161c1916905538808061203e565b9192602060018192868501518155019401920161202b565b9081516001600160401b038111610a12576120ae816120a7600454611a5b565b6004611f0c565b602092601f82116001146120e4576120df92938291600092611fe35750508160011b916000199060031b1c19161790565b600455565b6004600052601f198216937f8a35acfbc15ff81a39ae7d344fd709f28e8600b4aa8c65c6b64bfe7fe36bd19b9160005b86811061214b5750836001959610612132575b505050811b01600455565b015160001960f88460031b161c19169055388080612127565b91926020600181928685015181550194019201612114565b9081516001600160401b038111610a125761218a81612183600554611a5b565b6005611f0c565b602092601f82116001146121c0576121bb92938291600092611fe35750508160011b916000199060031b1c19161790565b600555565b6005600052601f198216937f036b6384b5eca791c62761152d0c79bb0604c104a5fb6f4eb0703f3154bb3db09160005b868110612227575083600195961061220e575b505050811b01600555565b015160001960f88460031b161c19169055388080612203565b919260206001819286850151815501940192016121f0565b6122476134eb565b61224f6134eb565b6001600080516020613a03833981519152556122696134eb565b6122716134eb565b60405161227f604082610a17565b60018152603160f81b60208201526122956134eb565b61229d6134eb565b83516001600160401b038111610a12576122ce816122c960008051602061398383398151915254611a5b565b611eac565b6020601f82116001146123f3576123d29695936123266123be94612311856123cd99966123ae966000916123e8575b508160011b916000199060031b1c19161790565b60008051602061398383398151915255611f5e565b61234f60007fa16a46d94261c7517cc8ff89f61c0ce93598e3c849801011dee649a6a557d10055565b61237860007fa16a46d94261c7517cc8ff89f61c0ce93598e3c849801011dee649a6a557d10155565b61238c6001600160a01b0382161515611e70565b60018060a01b03166bffffffffffffffffffffffff60a01b6000541617600055565b60ff1660ff196003541617600355565b6123c86001600255565b612087565b612163565b6123db33612ad7565b506123e533612b89565b50565b9050890151386122fd565b600080516020613983833981519152600052601f198216907f42ad5d3e1f2e6e70edcf6d991b8a3023d3fca8047a131592f9edb9fd9b89d57d9160005b81811061248c57506123be946001856123ae956123d29c9b99956123cd9b986123269610612473575b5050811b0160008051602061398383398151915255611f5e565b8a015160001960f88460031b161c191690553880612459565b9192602060018192868c015181550194019201612430565b600091825b6001600160a01b0383166000818152600160205260409020548510156124ff5760005260016020526124eb826124e66105ba8760406000206115f6565b612e04565b81018091116109a4576001909301926124a9565b509250505090565b1561250e57565b60405162461bcd60e51b815260206004820152600f60248201526e131bd8dac81a5cc8195e1c1a5c9959608a1b6044820152606490fd5b9060ff8091169116019060ff82116109a457565b1561256057565b60405162461bcd60e51b815260206004820152602560248201527f4e756d207765656b73206d757374206265206c657373207468616e206d6178206044820152647765656b7360d81b6064820152608490fd5b9062093a8082029180830462093a8014901517156109a457565b9061271082029180830461271014901517156109a457565b818102929181159184041417156109a457565b600091825b6001600160a01b0383166000818152600160205260409020548510156126495760005260016020526126338460406000206115f6565b505481018091116109a4576001909301926125fd565b5092509050565b9061265b9082612838565b9060018060a01b031680600052600160205260806126806105ba8460406000206115f6565b0151156126af57505060035460ff1662093a800262ffffff81169081036109a4576103549062ffffff16611510565b6002916126c891600052600160205260406000206115f6565b50015490565b604051906126dd602083610a17565b6000808352366020840137565b156126f157565b60405162461bcd60e51b815260206004820152601d60248201527f416d6f756e74206d7573742062652067726561746572207468616e20300000006044820152606490fd5b1561273d57565b60405162461bcd60e51b81526020600482015260126024820152714f766572206d617820706f736974696f6e7360701b6044820152606490fd5b8054600160401b811015610a1257612794916001820181556115f6565b919091611e1b5760a08160049251845560208101516001850155604081015160028501556127f5600385016127da60ff606085015116829060ff1660ff19825416179055565b6080830151815461ff00191690151560081b61ff0016179055565b0151910155565b6002600080516020613a038339815191525414612827576002600080516020613a0383398151915255565b633ee5aeb560e01b60005260046000fd5b9060005b6001600160a01b03831660008181526001602052604090205482101561288b5760005260016020528160046128758360406000206115f6565b500154146128855760010161283c565b91505090565b60405162461bcd60e51b815260206004820152600e60248201526d131bd8dac81b9bdd08199bdd5b9960921b6044820152606490fd5b60405163a9059cbb60e01b60208201526001600160a01b039092166024830152604480830193909352918152610a47916128fc606483610a17565b61302b565b610a4791906001600160a01b0316801561297c575b612927612922836130d4565b61315a565b5050600090815260008051602061396383398151915260205260408120549080527fd4fb29e10204005f1a39963c6862b79a755e22f0177c53f05cdc3786c702f974546001600160a01b039081169116613211565b61298d612988836130d4565b613107565b5050612916565b90610a47916129a5612988836130d4565b50506001600160a01b03168015612a08575b6000805160206139638339815191526020527fd4fb29e10204005f1a39963c6862b79a755e22f0177c53f05cdc3786c702f9745460009182526040909120546001600160a01b039081169116613211565b612a14612922836130d4565b50506129b7565b3360009081527fb16e88c42fd4e48df2dd6a2eabd6bc9aec654ec170056b470819f8892cc6431c602052604090205460ff1615612a5457565b63e2517d3f60e01b600052336004527fa49807205ce4d355092ef5a8a18f56e8913cf4a201fbe287825b095693c2177560245260446000fd5b60008181526000805160206139e38339815191526020908152604080832033845290915290205460ff1615612abf5750565b63e2517d3f60e01b6000523360045260245260446000fd5b6001600160a01b03811660009081527fb7db2dd08fcb62d0c9e08c51941cae53c267786a0b75803fb7960902fc8ef97d602052604090205460ff16612b83576001600160a01b031660008181527fb7db2dd08fcb62d0c9e08c51941cae53c267786a0b75803fb7960902fc8ef97d60205260408120805460ff191660011790553391907f2f8788117e7eff1d82e926ec794901d17c78024a50270940304540a733656f0d8180a4600190565b50600090565b6001600160a01b03811660009081527fb16e88c42fd4e48df2dd6a2eabd6bc9aec654ec170056b470819f8892cc6431c602052604090205460ff16612b83576001600160a01b03811660009081527fb16e88c42fd4e48df2dd6a2eabd6bc9aec654ec170056b470819f8892cc6431c60205260409020805460ff1916600117905533906001600160a01b03167fa49807205ce4d355092ef5a8a18f56e8913cf4a201fbe287825b095693c217757f2f8788117e7eff1d82e926ec794901d17c78024a50270940304540a733656f0d600080a4600190565b60008181526000805160206139e3833981519152602090815260408083206001600160a01b038616845290915290205460ff16612d075760008181526000805160206139e3833981519152602090815260408083206001600160a01b03861684529091529020805460ff1916600117905533916001600160a01b0316907f2f8788117e7eff1d82e926ec794901d17c78024a50270940304540a733656f0d600080a4600190565b5050600090565b60008181526000805160206139e3833981519152602090815260408083206001600160a01b038616845290915290205460ff1615612d075760008181526000805160206139e3833981519152602090815260408083206001600160a01b03861684529091529020805460ff1916905533916001600160a01b0316907ff6391f5c32d9c69d2a47ea670b442974b53935d1edc7fd64eb21e047a839171b600080a4600190565b65ffffffffffff8111612dcb5765ffffffffffff1690565b6306dfcc6560e41b600052603060045260245260446000fd5b8115612dee570490565b634e487b7160e01b600052601260045260246000fd5b90815190612e36612e2f6080850193612e1d8551151590565b15612eb75760035460ff165b90613519565b9251151590565b612eb15760208301908151918282108015612ea3575b612e9957612e85612e76612e8b93612e6e612e939660406103549a0151611d84565b935190611d84565b91612e80866125cd565b612de4565b906125e5565b612710900490565b90611d84565b5050505050600090565b506040850151821015612e4c565b50905090565b606086015160ff16612e29565b6001600160a01b0381811660008181526000805160206139638339815191526020526040812080548685166001600160a01b031982168117909255610a4796941694612f389390928691907f3134e8a2e6d97e929a7e54011ea5485d7d196dd5f0ba4d4ef95803e8e3fc257f9080a46125f8565b91613211565b80549081612f4d575050600090565b816000198101116109a45760005260001990602060002001015460301c90565b6040516323b872dd60e01b60208201526001600160a01b039283166024820152929091166044830152606480830193909352918152610a47916128fc608483610a17565b916103549391612fc09361354c565b90929192613601565b6001600160a01b031660008181527f5ab42ced628888259c08ac98db1eb0cf702fc1501344311d8b100cd1bfe4bb006020526040902080546001810190915591829003613014575050565b6301d4b62360e61b60005260045260245260446000fd5b6000806130759260018060a01b03169360208151910182865af13d156130cc573d9061305682610a58565b916130646040519384610a17565b82523d6000602084013e5b83613901565b805180151591826130a7575b505061308a5750565b635274afe760e01b6000526001600160a01b031660045260246000fd5b6020818101935091810103126102fd576130c59051610b48816116e9565b3880613081565b60609061306f565b6001600160d01b0381116130ee576001600160d01b031690565b6306dfcc6560e41b60005260d060045260245260446000fd5b61311043612db3565b906131286000805160206139c3833981519152612f3e565b6001600160d01b03918216908216019081116109a457613156916000805160206139c3833981519152613718565b9091565b61316343612db3565b9061317b6000805160206139c3833981519152612f3e565b6001600160d01b03918216908216039081116109a457613156916000805160206139c3833981519152613718565b906131b343612db3565b906131bd83612f3e565b6001600160d01b0391821690821603919082116109a45761315692613718565b906131e743612db3565b906131f183612f3e565b6001600160d01b0391821690821601919082116109a45761315692613718565b6001600160a01b0380831693929190811690818514158061330c575b613239575b5050505050565b816132ae575b50508261324e575b8080613232565b7fdec2bacdd2f05b59de34da9b523dff8be42e5e38e818c82fdb0bae774387a7249161328561327f61328b936115a7565b916130d4565b906131dd565b604080516001600160d01b039384168152919092166020820152a2388080613247565b6132ea6132db7fdec2bacdd2f05b59de34da9b523dff8be42e5e38e818c82fdb0bae774387a724926115a7565b6132e4866130d4565b906131a9565b604080516001600160d01b039384168152919092166020820152a2388061323f565b5083151561322d565b8015612b83576103549061341a6134136134096133ff6133f56133eb6133e16133d760016133c560008b608081901c80613476575b50806133596133bb9260401c90565b80613469575b5061336a8160201c90565b8061345c575b5061337b8160101c90565b8061344f575b5061338c8160081c90565b80613442575b5061339d8160041c90565b80613435575b506133ae8160021c90565b80613428575b5060011c90565b6134205760011c90565b1b6133d0818b612de4565b0160011c90565b6133d0818a612de4565b6133d08189612de4565b6133d08188612de4565b6133d08187612de4565b6133d08186612de4565b6133d08185612de4565b8092612de4565b90613683565b820160011c90565b60029150920191386133b4565b60049150920191386133a3565b6008915092019138613392565b6010915092019138613381565b6020915092019138613370565b604091509201913861335f565b6080925090506133bb61334a565b91905b8382106134945750505090565b9091928083169080841860011c82018092116109a4578460005265ffffffffffff82602060002001541665ffffffffffff8416106000146134d95750925b9190613487565b9392506134e590611c74565b916134d2565b60ff600080516020613a238339815191525460401c161561350857565b631afcd79f60e31b60005260046000fd5b6003546127109261353c929160ff918216911680821061354057505082906125e5565b0490565b612e80612e85926125cd565b91907f7fffffffffffffffffffffffffffffff5d576e7357a4501ddfe92f46681b20a084116135d5579160209360809260ff60009560405194855216868401526040830152606082015282805260015afa156135c9576000516001600160a01b038116156135bd5790600090600090565b50600090600190600090565b6040513d6000823e3d90fd5b50505060009160039190565b600411156135eb57565b634e487b7160e01b600052602160045260246000fd5b61360a816135e1565b80613613575050565b61361c816135e1565b600181036136355763f645eedf60e01b60005260046000fd5b61363e816135e1565b6002810361365b575063fce698f760e01b60005260045260246000fd5b806136676003926135e1565b1461366f5750565b6335e2f38360e21b60005260045260246000fd5b9080821015613690575090565b905090565b908154600160401b811015610a1257600181018084558110156116125760009283526020928390208251929093015160301b65ffffffffffff191665ffffffffffff9290921691909117910155565b90604051604081018181106001600160401b03821117610a1257604052915465ffffffffffff8116835260301c6020830152565b8054929392919082156138285761374661374161373485611d75565b8360005260206000200190565b6136e4565b9065ffffffffffff61375e835165ffffffffffff1690565b8185169182911611613817576137db946020948892613791613786875165ffffffffffff1690565b65ffffffffffff1690565b036137df57506137cd926137a76137b492611d75565b9060005260206000200190565b9065ffffffffffff82549181199060301b169116179055565b01516001600160d01b031690565b9190565b915050613812916137ff6137f1610a49565b65ffffffffffff9093168352565b6001600160d01b03881682860152613695565b6137cd565b632520601d60e01b60005260046000fd5b61384c92506138386137f1610a49565b6001600160d01b0385166020830152613695565b60009190565b61385a611a95565b805190811561386a576020012090565b50507fa16a46d94261c7517cc8ff89f61c0ce93598e3c849801011dee649a6a557d1005480156138975790565b507fc5d2460186f7233c927e7db2dcc703c0e500b653ca82273b7bfad8045d85a47090565b6138c4611b66565b80519081156138d4576020012090565b50507fa16a46d94261c7517cc8ff89f61c0ce93598e3c849801011dee649a6a557d1015480156138975790565b90613927575080511561391657805190602001fd5b630a12f52160e11b60005260046000fd5b81511580613959575b613938575090565b639996b31560e01b60009081526001600160a01b0391909116600452602490fd5b50803b1561393056fee8b26c30fad74198956032a3533d903385d56dd795af560196f9c78d4af40d00a16a46d94261c7517cc8ff89f61c0ce93598e3c849801011dee649a6a557d102a16a46d94261c7517cc8ff89f61c0ce93598e3c849801011dee649a6a557d103e8b26c30fad74198956032a3533d903385d56dd795af560196f9c78d4af40d0202dd7bc7dec4dceedda775e58dd541e08a116c6c53815c0bd028192f7b6268009b779b17422d0df92223018b32b4d1fa46e071723d6817e2486d003becc55f00f0c57e16840df040f15088dc2f81fe391c3923bec73e23a9662efc9c229c6a00a2646970667358221220282c82f10e5920ea60af7ebf20691da744a85fd6d4e595a7dd7bb80e0cf9b5e164736f6c634300081a0033",
    "linkReferences": {},
    "deployedLinkReferences": {}
}